{
	"contracts/Greeting.sol": {
		"Greeting": {
			"abi": [
				{
					"inputs": [
						{
							"internalType": "string",
							"name": "saludoInicial",
							"type": "string"
						}
					],
					"stateMutability": "nonpayable",
					"type": "constructor"
				},
				{
					"anonymous": false,
					"inputs": [
						{
							"indexed": false,
							"internalType": "string",
							"name": "nuevoSaludo",
							"type": "string"
						}
					],
					"name": "SaludoActualizado",
					"type": "event"
				},
				{
					"inputs": [],
					"name": "getSaludo",
					"outputs": [
						{
							"internalType": "string",
							"name": "",
							"type": "string"
						}
					],
					"stateMutability": "view",
					"type": "function"
				},
				{
					"inputs": [],
					"name": "greetTheUniverse",
					"outputs": [],
					"stateMutability": "nonpayable",
					"type": "function"
				},
				{
					"inputs": [
						{
							"internalType": "string",
							"name": "nuevoSaludo",
							"type": "string"
						}
					],
					"name": "setSaludo",
					"outputs": [],
					"stateMutability": "nonpayable",
					"type": "function"
				}
			],
			"devdoc": {
				"kind": "dev",
				"methods": {},
				"version": 1
			},
			"evm": {
				"assembly": "    /* \"contracts/Greeting.sol\":135:1790  contract Greeting {... */\n  mstore(0x40, 0x80)\n    /* \"contracts/Greeting.sol\":1184:1358  string[3] private saludosCosmicos = [... */\n  mload(0x40)\n  dup1\n  0x60\n  add\n  0x40\n  mstore\n  dup1\n  mload(0x40)\n  dup1\n  0x40\n  add\n  0x40\n  mstore\n  dup1\n  0x19\n  dup2\n  mstore\n  0x20\n  add\n  0x536f6d6f7320706f6c766f2064652065737472656c6c61732100000000000000\n  dup2\n  mstore\n  pop\n  dup2\n  mstore\n  0x20\n  add\n  mload(0x40)\n  dup1\n  0x60\n  add\n  0x40\n  mstore\n  dup1\n  0x21\n  dup2\n  mstore\n  0x20\n  add\n  data_ccfa1c8beeeaa44ba4e1ec19f1f6eaa2a5b668a905f680228282a331dd13b70e\n  0x21\n  swap2\n  codecopy\n  dup2\n  mstore\n  0x20\n  add\n  mload(0x40)\n  dup1\n  0x60\n  add\n  0x40\n  mstore\n  dup1\n  0x22\n  dup2\n  mstore\n  0x20\n  add\n  data_64a78569126fb0131ccddd0ea9de2e4cad8c773a669424a8178827dcdc0c2cd5\n  0x22\n  swap2\n  codecopy\n  dup2\n  mstore\n  pop\n  0x01\n  swap1\n  0x03\n  tag_1\n  swap3\n  swap2\n  swap1\n  tag_2\n  jump\t// in\ntag_1:\n  pop\n    /* \"contracts/Greeting.sol\":479:562  constructor(string memory saludoInicial) {... */\n  callvalue\n  dup1\n  iszero\n  tag_3\n  jumpi\n  revert(0x00, 0x00)\ntag_3:\n  pop\n  mload(0x40)\n  sub(codesize, bytecodeSize)\n  dup1\n  bytecodeSize\n  dup4\n  codecopy\n  dup2\n  dup2\n  add\n  0x40\n  mstore\n  dup2\n  add\n  swap1\n  tag_4\n  swap2\n  swap1\n  tag_5\n  jump\t// in\ntag_4:\n    /* \"contracts/Greeting.sol\":541:554  saludoInicial */\n  dup1\n    /* \"contracts/Greeting.sol\":531:538  _saludo */\n  0x00\n    /* \"contracts/Greeting.sol\":531:554  _saludo = saludoInicial */\n  swap1\n  dup2\n  tag_8\n  swap2\n  swap1\n  tag_9\n  jump\t// in\ntag_8:\n  pop\n    /* \"contracts/Greeting.sol\":479:562  constructor(string memory saludoInicial) {... */\n  pop\n    /* \"contracts/Greeting.sol\":135:1790  contract Greeting {... */\n  jump(tag_10)\ntag_2:\n  dup3\n  0x03\n  dup2\n  add\n  swap3\n  dup3\n  iszero\n  tag_11\n  jumpi\n  swap2\n  0x20\n  mul\n  dup3\n  add\ntag_12:\n  dup3\n  dup2\n  gt\n  iszero\n  tag_13\n  jumpi\n  dup3\n  mload\n  dup3\n  swap1\n  dup2\n  tag_14\n  swap2\n  swap1\n  tag_9\n  jump\t// in\ntag_14:\n  pop\n  swap2\n  0x20\n  add\n  swap2\n  swap1\n  0x01\n  add\n  swap1\n  jump(tag_12)\ntag_13:\ntag_11:\n  pop\n  swap1\n  pop\n  tag_15\n  swap2\n  swap1\n  tag_16\n  jump\t// in\ntag_15:\n  pop\n  swap1\n  jump\t// out\ntag_16:\ntag_17:\n  dup1\n  dup3\n  gt\n  iszero\n  tag_18\n  jumpi\n  0x00\n  dup2\n  dup2\n  tag_19\n  swap2\n  swap1\n  tag_20\n  jump\t// in\ntag_19:\n  pop\n  0x01\n  add\n  jump(tag_17)\ntag_18:\n  pop\n  swap1\n  jump\t// out\ntag_20:\n  pop\n  dup1\n  sload\n  tag_21\n  swap1\n  tag_22\n  jump\t// in\ntag_21:\n  0x00\n  dup3\n  sstore\n  dup1\n  0x1f\n  lt\n  tag_24\n  jumpi\n  pop\n  jump(tag_23)\ntag_24:\n  0x1f\n  add\n  0x20\n  swap1\n  div\n  swap1\n  0x00\n  mstore\n  keccak256(0x00, 0x20)\n  swap1\n  dup2\n  add\n  swap1\n  tag_25\n  swap2\n  swap1\n  tag_26\n  jump\t// in\ntag_25:\ntag_23:\n  pop\n  jump\t// out\ntag_26:\ntag_27:\n  dup1\n  dup3\n  gt\n  iszero\n  tag_28\n  jumpi\n  0x00\n  dup2\n  0x00\n  swap1\n  sstore\n  pop\n  0x01\n  add\n  jump(tag_27)\ntag_28:\n  pop\n  swap1\n  jump\t// out\n    /* \"#utility.yul\":7:82   */\ntag_29:\n    /* \"#utility.yul\":40:46   */\n  0x00\n    /* \"#utility.yul\":73:75   */\n  0x40\n    /* \"#utility.yul\":67:76   */\n  mload\n    /* \"#utility.yul\":57:76   */\n  swap1\n  pop\n    /* \"#utility.yul\":7:82   */\n  swap1\n  jump\t// out\n    /* \"#utility.yul\":88:205   */\ntag_30:\n    /* \"#utility.yul\":197:198   */\n  0x00\n    /* \"#utility.yul\":194:195   */\n  0x00\n    /* \"#utility.yul\":187:199   */\n  revert\n    /* \"#utility.yul\":211:328   */\ntag_31:\n    /* \"#utility.yul\":320:321   */\n  0x00\n    /* \"#utility.yul\":317:318   */\n  0x00\n    /* \"#utility.yul\":310:322   */\n  revert\n    /* \"#utility.yul\":334:451   */\ntag_32:\n    /* \"#utility.yul\":443:444   */\n  0x00\n    /* \"#utility.yul\":440:441   */\n  0x00\n    /* \"#utility.yul\":433:445   */\n  revert\n    /* \"#utility.yul\":457:574   */\ntag_33:\n    /* \"#utility.yul\":566:567   */\n  0x00\n    /* \"#utility.yul\":563:564   */\n  0x00\n    /* \"#utility.yul\":556:568   */\n  revert\n    /* \"#utility.yul\":580:682   */\ntag_34:\n    /* \"#utility.yul\":621:627   */\n  0x00\n    /* \"#utility.yul\":672:674   */\n  0x1f\n    /* \"#utility.yul\":668:675   */\n  not\n    /* \"#utility.yul\":663:665   */\n  0x1f\n    /* \"#utility.yul\":656:661   */\n  dup4\n    /* \"#utility.yul\":652:666   */\n  add\n    /* \"#utility.yul\":648:676   */\n  and\n    /* \"#utility.yul\":638:676   */\n  swap1\n  pop\n    /* \"#utility.yul\":580:682   */\n  swap2\n  swap1\n  pop\n  jump\t// out\n    /* \"#utility.yul\":688:868   */\ntag_35:\n    /* \"#utility.yul\":736:813   */\n  0x4e487b7100000000000000000000000000000000000000000000000000000000\n    /* \"#utility.yul\":733:734   */\n  0x00\n    /* \"#utility.yul\":726:814   */\n  mstore\n    /* \"#utility.yul\":833:837   */\n  0x41\n    /* \"#utility.yul\":830:831   */\n  0x04\n    /* \"#utility.yul\":823:838   */\n  mstore\n    /* \"#utility.yul\":857:861   */\n  0x24\n    /* \"#utility.yul\":854:855   */\n  0x00\n    /* \"#utility.yul\":847:862   */\n  revert\n    /* \"#utility.yul\":874:1155   */\ntag_36:\n    /* \"#utility.yul\":957:984   */\n  tag_69\n    /* \"#utility.yul\":979:983   */\n  dup3\n    /* \"#utility.yul\":957:984   */\n  tag_34\n  jump\t// in\ntag_69:\n    /* \"#utility.yul\":949:955   */\n  dup2\n    /* \"#utility.yul\":945:985   */\n  add\n    /* \"#utility.yul\":1087:1093   */\n  dup2\n    /* \"#utility.yul\":1075:1085   */\n  dup2\n    /* \"#utility.yul\":1072:1094   */\n  lt\n    /* \"#utility.yul\":1051:1069   */\n  0xffffffffffffffff\n    /* \"#utility.yul\":1039:1049   */\n  dup3\n    /* \"#utility.yul\":1036:1070   */\n  gt\n    /* \"#utility.yul\":1033:1095   */\n  or\n    /* \"#utility.yul\":1030:1118   */\n  iszero\n  tag_70\n  jumpi\n    /* \"#utility.yul\":1098:1116   */\n  tag_71\n  tag_35\n  jump\t// in\ntag_71:\n    /* \"#utility.yul\":1030:1118   */\ntag_70:\n    /* \"#utility.yul\":1138:1148   */\n  dup1\n    /* \"#utility.yul\":1134:1136   */\n  0x40\n    /* \"#utility.yul\":1127:1149   */\n  mstore\n    /* \"#utility.yul\":917:1155   */\n  pop\n    /* \"#utility.yul\":874:1155   */\n  pop\n  pop\n  jump\t// out\n    /* \"#utility.yul\":1161:1290   */\ntag_37:\n    /* \"#utility.yul\":1195:1201   */\n  0x00\n    /* \"#utility.yul\":1222:1242   */\n  tag_73\n  tag_29\n  jump\t// in\ntag_73:\n    /* \"#utility.yul\":1212:1242   */\n  swap1\n  pop\n    /* \"#utility.yul\":1251:1284   */\n  tag_74\n    /* \"#utility.yul\":1279:1283   */\n  dup3\n    /* \"#utility.yul\":1271:1277   */\n  dup3\n    /* \"#utility.yul\":1251:1284   */\n  tag_36\n  jump\t// in\ntag_74:\n    /* \"#utility.yul\":1161:1290   */\n  swap2\n  swap1\n  pop\n  jump\t// out\n    /* \"#utility.yul\":1296:1604   */\ntag_38:\n    /* \"#utility.yul\":1358:1362   */\n  0x00\n    /* \"#utility.yul\":1448:1466   */\n  0xffffffffffffffff\n    /* \"#utility.yul\":1440:1446   */\n  dup3\n    /* \"#utility.yul\":1437:1467   */\n  gt\n    /* \"#utility.yul\":1434:1490   */\n  iszero\n  tag_76\n  jumpi\n    /* \"#utility.yul\":1470:1488   */\n  tag_77\n  tag_35\n  jump\t// in\ntag_77:\n    /* \"#utility.yul\":1434:1490   */\ntag_76:\n    /* \"#utility.yul\":1508:1537   */\n  tag_78\n    /* \"#utility.yul\":1530:1536   */\n  dup3\n    /* \"#utility.yul\":1508:1537   */\n  tag_34\n  jump\t// in\ntag_78:\n    /* \"#utility.yul\":1500:1537   */\n  swap1\n  pop\n    /* \"#utility.yul\":1592:1596   */\n  0x20\n    /* \"#utility.yul\":1586:1590   */\n  dup2\n    /* \"#utility.yul\":1582:1597   */\n  add\n    /* \"#utility.yul\":1574:1597   */\n  swap1\n  pop\n    /* \"#utility.yul\":1296:1604   */\n  swap2\n  swap1\n  pop\n  jump\t// out\n    /* \"#utility.yul\":1610:1749   */\ntag_39:\n    /* \"#utility.yul\":1699:1705   */\n  dup3\n    /* \"#utility.yul\":1694:1697   */\n  dup2\n    /* \"#utility.yul\":1689:1692   */\n  dup4\n    /* \"#utility.yul\":1683:1706   */\n  mcopy\n    /* \"#utility.yul\":1740:1741   */\n  0x00\n    /* \"#utility.yul\":1731:1737   */\n  dup4\n    /* \"#utility.yul\":1726:1729   */\n  dup4\n    /* \"#utility.yul\":1722:1738   */\n  add\n    /* \"#utility.yul\":1715:1742   */\n  mstore\n    /* \"#utility.yul\":1610:1749   */\n  pop\n  pop\n  pop\n  jump\t// out\n    /* \"#utility.yul\":1755:2189   */\ntag_40:\n    /* \"#utility.yul\":1844:1849   */\n  0x00\n    /* \"#utility.yul\":1869:1935   */\n  tag_81\n    /* \"#utility.yul\":1885:1934   */\n  tag_82\n    /* \"#utility.yul\":1927:1933   */\n  dup5\n    /* \"#utility.yul\":1885:1934   */\n  tag_38\n  jump\t// in\ntag_82:\n    /* \"#utility.yul\":1869:1935   */\n  tag_37\n  jump\t// in\ntag_81:\n    /* \"#utility.yul\":1860:1935   */\n  swap1\n  pop\n    /* \"#utility.yul\":1958:1964   */\n  dup3\n    /* \"#utility.yul\":1951:1956   */\n  dup2\n    /* \"#utility.yul\":1944:1965   */\n  mstore\n    /* \"#utility.yul\":1996:2000   */\n  0x20\n    /* \"#utility.yul\":1989:1994   */\n  dup2\n    /* \"#utility.yul\":1985:2001   */\n  add\n    /* \"#utility.yul\":2034:2037   */\n  dup5\n    /* \"#utility.yul\":2025:2031   */\n  dup5\n    /* \"#utility.yul\":2020:2023   */\n  dup5\n    /* \"#utility.yul\":2016:2032   */\n  add\n    /* \"#utility.yul\":2013:2038   */\n  gt\n    /* \"#utility.yul\":2010:2122   */\n  iszero\n  tag_83\n  jumpi\n    /* \"#utility.yul\":2041:2120   */\n  tag_84\n  tag_33\n  jump\t// in\ntag_84:\n    /* \"#utility.yul\":2010:2122   */\ntag_83:\n    /* \"#utility.yul\":2131:2183   */\n  tag_85\n    /* \"#utility.yul\":2176:2182   */\n  dup5\n    /* \"#utility.yul\":2171:2174   */\n  dup3\n    /* \"#utility.yul\":2166:2169   */\n  dup6\n    /* \"#utility.yul\":2131:2183   */\n  tag_39\n  jump\t// in\ntag_85:\n    /* \"#utility.yul\":1850:2189   */\n  pop\n    /* \"#utility.yul\":1755:2189   */\n  swap4\n  swap3\n  pop\n  pop\n  pop\n  jump\t// out\n    /* \"#utility.yul\":2209:2564   */\ntag_41:\n    /* \"#utility.yul\":2276:2281   */\n  0x00\n    /* \"#utility.yul\":2325:2328   */\n  dup3\n    /* \"#utility.yul\":2318:2322   */\n  0x1f\n    /* \"#utility.yul\":2310:2316   */\n  dup4\n    /* \"#utility.yul\":2306:2323   */\n  add\n    /* \"#utility.yul\":2302:2329   */\n  slt\n    /* \"#utility.yul\":2292:2414   */\n  tag_87\n  jumpi\n    /* \"#utility.yul\":2333:2412   */\n  tag_88\n  tag_32\n  jump\t// in\ntag_88:\n    /* \"#utility.yul\":2292:2414   */\ntag_87:\n    /* \"#utility.yul\":2443:2449   */\n  dup2\n    /* \"#utility.yul\":2437:2450   */\n  mload\n    /* \"#utility.yul\":2468:2558   */\n  tag_89\n    /* \"#utility.yul\":2554:2557   */\n  dup5\n    /* \"#utility.yul\":2546:2552   */\n  dup3\n    /* \"#utility.yul\":2539:2543   */\n  0x20\n    /* \"#utility.yul\":2531:2537   */\n  dup7\n    /* \"#utility.yul\":2527:2544   */\n  add\n    /* \"#utility.yul\":2468:2558   */\n  tag_40\n  jump\t// in\ntag_89:\n    /* \"#utility.yul\":2459:2558   */\n  swap2\n  pop\n    /* \"#utility.yul\":2282:2564   */\n  pop\n    /* \"#utility.yul\":2209:2564   */\n  swap3\n  swap2\n  pop\n  pop\n  jump\t// out\n    /* \"#utility.yul\":2570:3094   */\ntag_5:\n    /* \"#utility.yul\":2650:2656   */\n  0x00\n    /* \"#utility.yul\":2699:2701   */\n  0x20\n    /* \"#utility.yul\":2687:2696   */\n  dup3\n    /* \"#utility.yul\":2678:2685   */\n  dup5\n    /* \"#utility.yul\":2674:2697   */\n  sub\n    /* \"#utility.yul\":2670:2702   */\n  slt\n    /* \"#utility.yul\":2667:2786   */\n  iszero\n  tag_91\n  jumpi\n    /* \"#utility.yul\":2705:2784   */\n  tag_92\n  tag_30\n  jump\t// in\ntag_92:\n    /* \"#utility.yul\":2667:2786   */\ntag_91:\n    /* \"#utility.yul\":2846:2847   */\n  0x00\n    /* \"#utility.yul\":2835:2844   */\n  dup3\n    /* \"#utility.yul\":2831:2848   */\n  add\n    /* \"#utility.yul\":2825:2849   */\n  mload\n    /* \"#utility.yul\":2876:2894   */\n  0xffffffffffffffff\n    /* \"#utility.yul\":2868:2874   */\n  dup2\n    /* \"#utility.yul\":2865:2895   */\n  gt\n    /* \"#utility.yul\":2862:2979   */\n  iszero\n  tag_93\n  jumpi\n    /* \"#utility.yul\":2898:2977   */\n  tag_94\n  tag_31\n  jump\t// in\ntag_94:\n    /* \"#utility.yul\":2862:2979   */\ntag_93:\n    /* \"#utility.yul\":3003:3077   */\n  tag_95\n    /* \"#utility.yul\":3069:3076   */\n  dup5\n    /* \"#utility.yul\":3060:3066   */\n  dup3\n    /* \"#utility.yul\":3049:3058   */\n  dup6\n    /* \"#utility.yul\":3045:3067   */\n  add\n    /* \"#utility.yul\":3003:3077   */\n  tag_41\n  jump\t// in\ntag_95:\n    /* \"#utility.yul\":2993:3077   */\n  swap2\n  pop\n    /* \"#utility.yul\":2796:3087   */\n  pop\n    /* \"#utility.yul\":2570:3094   */\n  swap3\n  swap2\n  pop\n  pop\n  jump\t// out\n    /* \"#utility.yul\":3100:3199   */\ntag_42:\n    /* \"#utility.yul\":3152:3158   */\n  0x00\n    /* \"#utility.yul\":3186:3191   */\n  dup2\n    /* \"#utility.yul\":3180:3192   */\n  mload\n    /* \"#utility.yul\":3170:3192   */\n  swap1\n  pop\n    /* \"#utility.yul\":3100:3199   */\n  swap2\n  swap1\n  pop\n  jump\t// out\n    /* \"#utility.yul\":3205:3385   */\ntag_43:\n    /* \"#utility.yul\":3253:3330   */\n  0x4e487b7100000000000000000000000000000000000000000000000000000000\n    /* \"#utility.yul\":3250:3251   */\n  0x00\n    /* \"#utility.yul\":3243:3331   */\n  mstore\n    /* \"#utility.yul\":3350:3354   */\n  0x22\n    /* \"#utility.yul\":3347:3348   */\n  0x04\n    /* \"#utility.yul\":3340:3355   */\n  mstore\n    /* \"#utility.yul\":3374:3378   */\n  0x24\n    /* \"#utility.yul\":3371:3372   */\n  0x00\n    /* \"#utility.yul\":3364:3379   */\n  revert\n    /* \"#utility.yul\":3391:3711   */\ntag_22:\n    /* \"#utility.yul\":3435:3441   */\n  0x00\n    /* \"#utility.yul\":3472:3473   */\n  0x02\n    /* \"#utility.yul\":3466:3470   */\n  dup3\n    /* \"#utility.yul\":3462:3474   */\n  div\n    /* \"#utility.yul\":3452:3474   */\n  swap1\n  pop\n    /* \"#utility.yul\":3519:3520   */\n  0x01\n    /* \"#utility.yul\":3513:3517   */\n  dup3\n    /* \"#utility.yul\":3509:3521   */\n  and\n    /* \"#utility.yul\":3540:3558   */\n  dup1\n    /* \"#utility.yul\":3530:3611   */\n  tag_99\n  jumpi\n    /* \"#utility.yul\":3596:3600   */\n  0x7f\n    /* \"#utility.yul\":3588:3594   */\n  dup3\n    /* \"#utility.yul\":3584:3601   */\n  and\n    /* \"#utility.yul\":3574:3601   */\n  swap2\n  pop\n    /* \"#utility.yul\":3530:3611   */\ntag_99:\n    /* \"#utility.yul\":3658:3660   */\n  0x20\n    /* \"#utility.yul\":3650:3656   */\n  dup3\n    /* \"#utility.yul\":3647:3661   */\n  lt\n    /* \"#utility.yul\":3627:3645   */\n  dup2\n    /* \"#utility.yul\":3624:3662   */\n  sub\n    /* \"#utility.yul\":3621:3705   */\n  tag_100\n  jumpi\n    /* \"#utility.yul\":3677:3695   */\n  tag_101\n  tag_43\n  jump\t// in\ntag_101:\n    /* \"#utility.yul\":3621:3705   */\ntag_100:\n    /* \"#utility.yul\":3442:3711   */\n  pop\n    /* \"#utility.yul\":3391:3711   */\n  swap2\n  swap1\n  pop\n  jump\t// out\n    /* \"#utility.yul\":3717:3858   */\ntag_44:\n    /* \"#utility.yul\":3766:3770   */\n  0x00\n    /* \"#utility.yul\":3789:3792   */\n  dup2\n    /* \"#utility.yul\":3781:3792   */\n  swap1\n  pop\n    /* \"#utility.yul\":3812:3815   */\n  dup2\n    /* \"#utility.yul\":3809:3810   */\n  0x00\n    /* \"#utility.yul\":3802:3816   */\n  mstore\n    /* \"#utility.yul\":3846:3850   */\n  0x20\n    /* \"#utility.yul\":3843:3844   */\n  0x00\n    /* \"#utility.yul\":3833:3851   */\n  keccak256\n    /* \"#utility.yul\":3825:3851   */\n  swap1\n  pop\n    /* \"#utility.yul\":3717:3858   */\n  swap2\n  swap1\n  pop\n  jump\t// out\n    /* \"#utility.yul\":3864:3957   */\ntag_45:\n    /* \"#utility.yul\":3901:3907   */\n  0x00\n    /* \"#utility.yul\":3948:3950   */\n  0x20\n    /* \"#utility.yul\":3943:3945   */\n  0x1f\n    /* \"#utility.yul\":3936:3941   */\n  dup4\n    /* \"#utility.yul\":3932:3946   */\n  add\n    /* \"#utility.yul\":3928:3951   */\n  div\n    /* \"#utility.yul\":3918:3951   */\n  swap1\n  pop\n    /* \"#utility.yul\":3864:3957   */\n  swap2\n  swap1\n  pop\n  jump\t// out\n    /* \"#utility.yul\":3963:4070   */\ntag_46:\n    /* \"#utility.yul\":4007:4015   */\n  0x00\n    /* \"#utility.yul\":4057:4062   */\n  dup3\n    /* \"#utility.yul\":4051:4055   */\n  dup3\n    /* \"#utility.yul\":4047:4063   */\n  shl\n    /* \"#utility.yul\":4026:4063   */\n  swap1\n  pop\n    /* \"#utility.yul\":3963:4070   */\n  swap3\n  swap2\n  pop\n  pop\n  jump\t// out\n    /* \"#utility.yul\":4076:4469   */\ntag_47:\n    /* \"#utility.yul\":4145:4151   */\n  0x00\n    /* \"#utility.yul\":4195:4196   */\n  0x08\n    /* \"#utility.yul\":4183:4193   */\n  dup4\n    /* \"#utility.yul\":4179:4197   */\n  mul\n    /* \"#utility.yul\":4218:4315   */\n  tag_106\n    /* \"#utility.yul\":4248:4314   */\n  0xffffffffffffffffffffffffffffffffffffffffffffffffffffffffffffffff\n    /* \"#utility.yul\":4237:4246   */\n  dup3\n    /* \"#utility.yul\":4218:4315   */\n  tag_46\n  jump\t// in\ntag_106:\n    /* \"#utility.yul\":4336:4375   */\n  tag_107\n    /* \"#utility.yul\":4366:4374   */\n  dup7\n    /* \"#utility.yul\":4355:4364   */\n  dup4\n    /* \"#utility.yul\":4336:4375   */\n  tag_46\n  jump\t// in\ntag_107:\n    /* \"#utility.yul\":4324:4375   */\n  swap6\n  pop\n    /* \"#utility.yul\":4408:4412   */\n  dup1\n    /* \"#utility.yul\":4404:4413   */\n  not\n    /* \"#utility.yul\":4397:4402   */\n  dup5\n    /* \"#utility.yul\":4393:4414   */\n  and\n    /* \"#utility.yul\":4384:4414   */\n  swap4\n  pop\n    /* \"#utility.yul\":4457:4461   */\n  dup1\n    /* \"#utility.yul\":4447:4455   */\n  dup7\n    /* \"#utility.yul\":4443:4462   */\n  and\n    /* \"#utility.yul\":4436:4441   */\n  dup5\n    /* \"#utility.yul\":4433:4463   */\n  or\n    /* \"#utility.yul\":4423:4463   */\n  swap3\n  pop\n    /* \"#utility.yul\":4152:4469   */\n  pop\n  pop\n    /* \"#utility.yul\":4076:4469   */\n  swap4\n  swap3\n  pop\n  pop\n  pop\n  jump\t// out\n    /* \"#utility.yul\":4475:4552   */\ntag_48:\n    /* \"#utility.yul\":4512:4519   */\n  0x00\n    /* \"#utility.yul\":4541:4546   */\n  dup2\n    /* \"#utility.yul\":4530:4546   */\n  swap1\n  pop\n    /* \"#utility.yul\":4475:4552   */\n  swap2\n  swap1\n  pop\n  jump\t// out\n    /* \"#utility.yul\":4558:4618   */\ntag_49:\n    /* \"#utility.yul\":4586:4589   */\n  0x00\n    /* \"#utility.yul\":4607:4612   */\n  dup2\n    /* \"#utility.yul\":4600:4612   */\n  swap1\n  pop\n    /* \"#utility.yul\":4558:4618   */\n  swap2\n  swap1\n  pop\n  jump\t// out\n    /* \"#utility.yul\":4624:4766   */\ntag_50:\n    /* \"#utility.yul\":4674:4683   */\n  0x00\n    /* \"#utility.yul\":4707:4760   */\n  tag_111\n    /* \"#utility.yul\":4725:4759   */\n  tag_112\n    /* \"#utility.yul\":4734:4758   */\n  tag_113\n    /* \"#utility.yul\":4752:4757   */\n  dup5\n    /* \"#utility.yul\":4734:4758   */\n  tag_48\n  jump\t// in\ntag_113:\n    /* \"#utility.yul\":4725:4759   */\n  tag_49\n  jump\t// in\ntag_112:\n    /* \"#utility.yul\":4707:4760   */\n  tag_48\n  jump\t// in\ntag_111:\n    /* \"#utility.yul\":4694:4760   */\n  swap1\n  pop\n    /* \"#utility.yul\":4624:4766   */\n  swap2\n  swap1\n  pop\n  jump\t// out\n    /* \"#utility.yul\":4772:4847   */\ntag_51:\n    /* \"#utility.yul\":4815:4818   */\n  0x00\n    /* \"#utility.yul\":4836:4841   */\n  dup2\n    /* \"#utility.yul\":4829:4841   */\n  swap1\n  pop\n    /* \"#utility.yul\":4772:4847   */\n  swap2\n  swap1\n  pop\n  jump\t// out\n    /* \"#utility.yul\":4853:5122   */\ntag_52:\n    /* \"#utility.yul\":4963:5002   */\n  tag_116\n    /* \"#utility.yul\":4994:5001   */\n  dup4\n    /* \"#utility.yul\":4963:5002   */\n  tag_50\n  jump\t// in\ntag_116:\n    /* \"#utility.yul\":5024:5115   */\n  tag_117\n    /* \"#utility.yul\":5073:5114   */\n  tag_118\n    /* \"#utility.yul\":5097:5113   */\n  dup3\n    /* \"#utility.yul\":5073:5114   */\n  tag_51\n  jump\t// in\ntag_118:\n    /* \"#utility.yul\":5065:5071   */\n  dup5\n    /* \"#utility.yul\":5058:5062   */\n  dup5\n    /* \"#utility.yul\":5052:5063   */\n  sload\n    /* \"#utility.yul\":5024:5115   */\n  tag_47\n  jump\t// in\ntag_117:\n    /* \"#utility.yul\":5018:5022   */\n  dup3\n    /* \"#utility.yul\":5011:5116   */\n  sstore\n    /* \"#utility.yul\":4929:5122   */\n  pop\n    /* \"#utility.yul\":4853:5122   */\n  pop\n  pop\n  pop\n  jump\t// out\n    /* \"#utility.yul\":5128:5201   */\ntag_53:\n    /* \"#utility.yul\":5173:5176   */\n  0x00\n    /* \"#utility.yul\":5194:5195   */\n  0x00\n    /* \"#utility.yul\":5187:5195   */\n  swap1\n  pop\n    /* \"#utility.yul\":5128:5201   */\n  swap1\n  jump\t// out\n    /* \"#utility.yul\":5207:5396   */\ntag_54:\n    /* \"#utility.yul\":5284:5316   */\n  tag_121\n  tag_53\n  jump\t// in\ntag_121:\n    /* \"#utility.yul\":5325:5390   */\n  tag_122\n    /* \"#utility.yul\":5383:5389   */\n  dup2\n    /* \"#utility.yul\":5375:5381   */\n  dup5\n    /* \"#utility.yul\":5369:5373   */\n  dup5\n    /* \"#utility.yul\":5325:5390   */\n  tag_52\n  jump\t// in\ntag_122:\n    /* \"#utility.yul\":5260:5396   */\n  pop\n    /* \"#utility.yul\":5207:5396   */\n  pop\n  pop\n  jump\t// out\n    /* \"#utility.yul\":5402:5588   */\ntag_55:\n    /* \"#utility.yul\":5462:5582   */\ntag_124:\n    /* \"#utility.yul\":5479:5482   */\n  dup2\n    /* \"#utility.yul\":5472:5477   */\n  dup2\n    /* \"#utility.yul\":5469:5483   */\n  lt\n    /* \"#utility.yul\":5462:5582   */\n  iszero\n  tag_126\n  jumpi\n    /* \"#utility.yul\":5533:5572   */\n  tag_127\n    /* \"#utility.yul\":5570:5571   */\n  0x00\n    /* \"#utility.yul\":5563:5568   */\n  dup3\n    /* \"#utility.yul\":5533:5572   */\n  tag_54\n  jump\t// in\ntag_127:\n    /* \"#utility.yul\":5506:5507   */\n  0x01\n    /* \"#utility.yul\":5499:5504   */\n  dup2\n    /* \"#utility.yul\":5495:5508   */\n  add\n    /* \"#utility.yul\":5486:5508   */\n  swap1\n  pop\n    /* \"#utility.yul\":5462:5582   */\n  jump(tag_124)\ntag_126:\n    /* \"#utility.yul\":5402:5588   */\n  pop\n  pop\n  jump\t// out\n    /* \"#utility.yul\":5594:6137   */\ntag_56:\n    /* \"#utility.yul\":5695:5697   */\n  0x1f\n    /* \"#utility.yul\":5690:5693   */\n  dup3\n    /* \"#utility.yul\":5687:5698   */\n  gt\n    /* \"#utility.yul\":5684:6130   */\n  iszero\n  tag_129\n  jumpi\n    /* \"#utility.yul\":5729:5767   */\n  tag_130\n    /* \"#utility.yul\":5761:5766   */\n  dup2\n    /* \"#utility.yul\":5729:5767   */\n  tag_44\n  jump\t// in\ntag_130:\n    /* \"#utility.yul\":5813:5842   */\n  tag_131\n    /* \"#utility.yul\":5831:5841   */\n  dup5\n    /* \"#utility.yul\":5813:5842   */\n  tag_45\n  jump\t// in\ntag_131:\n    /* \"#utility.yul\":5803:5811   */\n  dup2\n    /* \"#utility.yul\":5799:5843   */\n  add\n    /* \"#utility.yul\":5996:5998   */\n  0x20\n    /* \"#utility.yul\":5984:5994   */\n  dup6\n    /* \"#utility.yul\":5981:5999   */\n  lt\n    /* \"#utility.yul\":5978:6027   */\n  iszero\n  tag_132\n  jumpi\n    /* \"#utility.yul\":6017:6025   */\n  dup2\n    /* \"#utility.yul\":6002:6025   */\n  swap1\n  pop\n    /* \"#utility.yul\":5978:6027   */\ntag_132:\n    /* \"#utility.yul\":6040:6120   */\n  tag_133\n    /* \"#utility.yul\":6096:6118   */\n  tag_134\n    /* \"#utility.yul\":6114:6117   */\n  dup6\n    /* \"#utility.yul\":6096:6118   */\n  tag_45\n  jump\t// in\ntag_134:\n    /* \"#utility.yul\":6086:6094   */\n  dup4\n    /* \"#utility.yul\":6082:6119   */\n  add\n    /* \"#utility.yul\":6069:6080   */\n  dup3\n    /* \"#utility.yul\":6040:6120   */\n  tag_55\n  jump\t// in\ntag_133:\n    /* \"#utility.yul\":5699:6130   */\n  pop\n  pop\n    /* \"#utility.yul\":5684:6130   */\ntag_129:\n    /* \"#utility.yul\":5594:6137   */\n  pop\n  pop\n  pop\n  jump\t// out\n    /* \"#utility.yul\":6143:6260   */\ntag_57:\n    /* \"#utility.yul\":6197:6205   */\n  0x00\n    /* \"#utility.yul\":6247:6252   */\n  dup3\n    /* \"#utility.yul\":6241:6245   */\n  dup3\n    /* \"#utility.yul\":6237:6253   */\n  shr\n    /* \"#utility.yul\":6216:6253   */\n  swap1\n  pop\n    /* \"#utility.yul\":6143:6260   */\n  swap3\n  swap2\n  pop\n  pop\n  jump\t// out\n    /* \"#utility.yul\":6266:6435   */\ntag_58:\n    /* \"#utility.yul\":6310:6316   */\n  0x00\n    /* \"#utility.yul\":6343:6394   */\n  tag_137\n    /* \"#utility.yul\":6391:6392   */\n  0x00\n    /* \"#utility.yul\":6387:6393   */\n  not\n    /* \"#utility.yul\":6379:6384   */\n  dup5\n    /* \"#utility.yul\":6376:6377   */\n  0x08\n    /* \"#utility.yul\":6372:6385   */\n  mul\n    /* \"#utility.yul\":6343:6394   */\n  tag_57\n  jump\t// in\ntag_137:\n    /* \"#utility.yul\":6339:6395   */\n  not\n    /* \"#utility.yul\":6424:6428   */\n  dup1\n    /* \"#utility.yul\":6418:6422   */\n  dup4\n    /* \"#utility.yul\":6414:6429   */\n  and\n    /* \"#utility.yul\":6404:6429   */\n  swap2\n  pop\n    /* \"#utility.yul\":6317:6435   */\n  pop\n    /* \"#utility.yul\":6266:6435   */\n  swap3\n  swap2\n  pop\n  pop\n  jump\t// out\n    /* \"#utility.yul\":6440:6735   */\ntag_59:\n    /* \"#utility.yul\":6516:6520   */\n  0x00\n    /* \"#utility.yul\":6662:6691   */\n  tag_139\n    /* \"#utility.yul\":6687:6690   */\n  dup4\n    /* \"#utility.yul\":6681:6685   */\n  dup4\n    /* \"#utility.yul\":6662:6691   */\n  tag_58\n  jump\t// in\ntag_139:\n    /* \"#utility.yul\":6654:6691   */\n  swap2\n  pop\n    /* \"#utility.yul\":6724:6727   */\n  dup3\n    /* \"#utility.yul\":6721:6722   */\n  0x02\n    /* \"#utility.yul\":6717:6728   */\n  mul\n    /* \"#utility.yul\":6711:6715   */\n  dup3\n    /* \"#utility.yul\":6708:6729   */\n  or\n    /* \"#utility.yul\":6700:6729   */\n  swap1\n  pop\n    /* \"#utility.yul\":6440:6735   */\n  swap3\n  swap2\n  pop\n  pop\n  jump\t// out\n    /* \"#utility.yul\":6740:8135   */\ntag_9:\n    /* \"#utility.yul\":6857:6894   */\n  tag_141\n    /* \"#utility.yul\":6890:6893   */\n  dup3\n    /* \"#utility.yul\":6857:6894   */\n  tag_42\n  jump\t// in\ntag_141:\n    /* \"#utility.yul\":6959:6977   */\n  0xffffffffffffffff\n    /* \"#utility.yul\":6951:6957   */\n  dup2\n    /* \"#utility.yul\":6948:6978   */\n  gt\n    /* \"#utility.yul\":6945:7001   */\n  iszero\n  tag_142\n  jumpi\n    /* \"#utility.yul\":6981:6999   */\n  tag_143\n  tag_35\n  jump\t// in\ntag_143:\n    /* \"#utility.yul\":6945:7001   */\ntag_142:\n    /* \"#utility.yul\":7025:7063   */\n  tag_144\n    /* \"#utility.yul\":7057:7061   */\n  dup3\n    /* \"#utility.yul\":7051:7062   */\n  sload\n    /* \"#utility.yul\":7025:7063   */\n  tag_22\n  jump\t// in\ntag_144:\n    /* \"#utility.yul\":7110:7177   */\n  tag_145\n    /* \"#utility.yul\":7170:7176   */\n  dup3\n    /* \"#utility.yul\":7162:7168   */\n  dup3\n    /* \"#utility.yul\":7156:7160   */\n  dup6\n    /* \"#utility.yul\":7110:7177   */\n  tag_56\n  jump\t// in\ntag_145:\n    /* \"#utility.yul\":7204:7205   */\n  0x00\n    /* \"#utility.yul\":7228:7232   */\n  0x20\n    /* \"#utility.yul\":7215:7232   */\n  swap1\n  pop\n    /* \"#utility.yul\":7260:7262   */\n  0x1f\n    /* \"#utility.yul\":7252:7258   */\n  dup4\n    /* \"#utility.yul\":7249:7263   */\n  gt\n    /* \"#utility.yul\":7277:7278   */\n  0x01\n    /* \"#utility.yul\":7272:7890   */\n  dup2\n  eq\n  tag_147\n  jumpi\n    /* \"#utility.yul\":7934:7935   */\n  0x00\n    /* \"#utility.yul\":7951:7957   */\n  dup5\n    /* \"#utility.yul\":7948:8025   */\n  iszero\n  tag_148\n  jumpi\n    /* \"#utility.yul\":8000:8009   */\n  dup3\n    /* \"#utility.yul\":7995:7998   */\n  dup8\n    /* \"#utility.yul\":7991:8010   */\n  add\n    /* \"#utility.yul\":7985:8011   */\n  mload\n    /* \"#utility.yul\":7976:8011   */\n  swap1\n  pop\n    /* \"#utility.yul\":7948:8025   */\ntag_148:\n    /* \"#utility.yul\":8051:8118   */\n  tag_149\n    /* \"#utility.yul\":8111:8117   */\n  dup6\n    /* \"#utility.yul\":8104:8109   */\n  dup3\n    /* \"#utility.yul\":8051:8118   */\n  tag_59\n  jump\t// in\ntag_149:\n    /* \"#utility.yul\":8045:8049   */\n  dup7\n    /* \"#utility.yul\":8038:8119   */\n  sstore\n    /* \"#utility.yul\":7907:8129   */\n  pop\n    /* \"#utility.yul\":7242:8129   */\n  jump(tag_146)\n    /* \"#utility.yul\":7272:7890   */\ntag_147:\n    /* \"#utility.yul\":7324:7328   */\n  0x1f\n    /* \"#utility.yul\":7320:7329   */\n  not\n    /* \"#utility.yul\":7312:7318   */\n  dup5\n    /* \"#utility.yul\":7308:7330   */\n  and\n    /* \"#utility.yul\":7358:7395   */\n  tag_150\n    /* \"#utility.yul\":7390:7394   */\n  dup7\n    /* \"#utility.yul\":7358:7395   */\n  tag_44\n  jump\t// in\ntag_150:\n    /* \"#utility.yul\":7417:7418   */\n  0x00\n    /* \"#utility.yul\":7431:7639   */\ntag_151:\n    /* \"#utility.yul\":7445:7452   */\n  dup3\n    /* \"#utility.yul\":7442:7443   */\n  dup2\n    /* \"#utility.yul\":7439:7453   */\n  lt\n    /* \"#utility.yul\":7431:7639   */\n  iszero\n  tag_153\n  jumpi\n    /* \"#utility.yul\":7524:7533   */\n  dup5\n    /* \"#utility.yul\":7519:7522   */\n  dup10\n    /* \"#utility.yul\":7515:7534   */\n  add\n    /* \"#utility.yul\":7509:7535   */\n  mload\n    /* \"#utility.yul\":7501:7507   */\n  dup3\n    /* \"#utility.yul\":7494:7536   */\n  sstore\n    /* \"#utility.yul\":7575:7576   */\n  0x01\n    /* \"#utility.yul\":7567:7573   */\n  dup3\n    /* \"#utility.yul\":7563:7577   */\n  add\n    /* \"#utility.yul\":7553:7577   */\n  swap2\n  pop\n    /* \"#utility.yul\":7622:7624   */\n  0x20\n    /* \"#utility.yul\":7611:7620   */\n  dup6\n    /* \"#utility.yul\":7607:7625   */\n  add\n    /* \"#utility.yul\":7594:7625   */\n  swap5\n  pop\n    /* \"#utility.yul\":7468:7472   */\n  0x20\n    /* \"#utility.yul\":7465:7466   */\n  dup2\n    /* \"#utility.yul\":7461:7473   */\n  add\n    /* \"#utility.yul\":7456:7473   */\n  swap1\n  pop\n    /* \"#utility.yul\":7431:7639   */\n  jump(tag_151)\ntag_153:\n    /* \"#utility.yul\":7667:7673   */\n  dup7\n    /* \"#utility.yul\":7658:7665   */\n  dup4\n    /* \"#utility.yul\":7655:7674   */\n  lt\n    /* \"#utility.yul\":7652:7831   */\n  iszero\n  tag_154\n  jumpi\n    /* \"#utility.yul\":7725:7734   */\n  dup5\n    /* \"#utility.yul\":7720:7723   */\n  dup10\n    /* \"#utility.yul\":7716:7735   */\n  add\n    /* \"#utility.yul\":7710:7736   */\n  mload\n    /* \"#utility.yul\":7768:7816   */\n  tag_155\n    /* \"#utility.yul\":7810:7814   */\n  0x1f\n    /* \"#utility.yul\":7802:7808   */\n  dup10\n    /* \"#utility.yul\":7798:7815   */\n  and\n    /* \"#utility.yul\":7787:7796   */\n  dup3\n    /* \"#utility.yul\":7768:7816   */\n  tag_58\n  jump\t// in\ntag_155:\n    /* \"#utility.yul\":7760:7766   */\n  dup4\n    /* \"#utility.yul\":7753:7817   */\n  sstore\n    /* \"#utility.yul\":7675:7831   */\n  pop\n    /* \"#utility.yul\":7652:7831   */\ntag_154:\n    /* \"#utility.yul\":7877:7878   */\n  0x01\n    /* \"#utility.yul\":7873:7874   */\n  0x02\n    /* \"#utility.yul\":7865:7871   */\n  dup9\n    /* \"#utility.yul\":7861:7875   */\n  mul\n    /* \"#utility.yul\":7857:7879   */\n  add\n    /* \"#utility.yul\":7851:7855   */\n  dup9\n    /* \"#utility.yul\":7844:7880   */\n  sstore\n    /* \"#utility.yul\":7279:7890   */\n  pop\n  pop\n  pop\n    /* \"#utility.yul\":7242:8129   */\ntag_146:\n  pop\n    /* \"#utility.yul\":6832:8135   */\n  pop\n  pop\n  pop\n    /* \"#utility.yul\":6740:8135   */\n  pop\n  pop\n  jump\t// out\n    /* \"contracts/Greeting.sol\":135:1790  contract Greeting {... */\ntag_10:\n  dataSize(sub_0)\n  dup1\n  dataOffset(sub_0)\n  0x00\n  codecopy\n  0x00\n  return\nstop\ndata_64a78569126fb0131ccddd0ea9de2e4cad8c773a669424a8178827dcdc0c2cd5 44616e69656c6120262047726f6b20646f6d696e616e206c612067616c6178696121\ndata_ccfa1c8beeeaa44ba4e1ec19f1f6eaa2a5b668a905f680228282a331dd13b70e 456c20756e69766572736f206e6f732073616c756461206465207675656c746121\n\nsub_0: assembly {\n        /* \"contracts/Greeting.sol\":135:1790  contract Greeting {... */\n      mstore(0x40, 0x80)\n      callvalue\n      dup1\n      iszero\n      tag_1\n      jumpi\n      revert(0x00, 0x00)\n    tag_1:\n      pop\n      jumpi(tag_2, lt(calldatasize, 0x04))\n      shr(0xe0, calldataload(0x00))\n      dup1\n      0xb703ec59\n      eq\n      tag_3\n      jumpi\n      dup1\n      0xd0927395\n      eq\n      tag_4\n      jumpi\n      dup1\n      0xdb070261\n      eq\n      tag_5\n      jumpi\n    tag_2:\n      revert(0x00, 0x00)\n        /* \"contracts/Greeting.sol\":642:732  function getSaludo() public view returns (string memory) {... */\n    tag_3:\n      tag_6\n      tag_7\n      jump\t// in\n    tag_6:\n      mload(0x40)\n      tag_8\n      swap2\n      swap1\n      tag_9\n      jump\t// in\n    tag_8:\n      mload(0x40)\n      dup1\n      swap2\n      sub\n      swap1\n      return\n        /* \"contracts/Greeting.sol\":1421:1787  function greetTheUniverse() public {... */\n    tag_4:\n      tag_10\n      tag_11\n      jump\t// in\n    tag_10:\n      stop\n        /* \"contracts/Greeting.sol\":836:1111  function setSaludo(string memory nuevoSaludo) public {... */\n    tag_5:\n      tag_12\n      0x04\n      dup1\n      calldatasize\n      sub\n      dup2\n      add\n      swap1\n      tag_13\n      swap2\n      swap1\n      tag_14\n      jump\t// in\n    tag_13:\n      tag_15\n      jump\t// in\n    tag_12:\n      stop\n        /* \"contracts/Greeting.sol\":642:732  function getSaludo() public view returns (string memory) {... */\n    tag_7:\n        /* \"contracts/Greeting.sol\":684:697  string memory */\n      0x60\n        /* \"contracts/Greeting.sol\":717:724  _saludo */\n      0x00\n        /* \"contracts/Greeting.sol\":710:724  return _saludo */\n      dup1\n      sload\n      tag_17\n      swap1\n      tag_18\n      jump\t// in\n    tag_17:\n      dup1\n      0x1f\n      add\n      0x20\n      dup1\n      swap2\n      div\n      mul\n      0x20\n      add\n      mload(0x40)\n      swap1\n      dup2\n      add\n      0x40\n      mstore\n      dup1\n      swap3\n      swap2\n      swap1\n      dup2\n      dup2\n      mstore\n      0x20\n      add\n      dup3\n      dup1\n      sload\n      tag_19\n      swap1\n      tag_18\n      jump\t// in\n    tag_19:\n      dup1\n      iszero\n      tag_20\n      jumpi\n      dup1\n      0x1f\n      lt\n      tag_21\n      jumpi\n      0x0100\n      dup1\n      dup4\n      sload\n      div\n      mul\n      dup4\n      mstore\n      swap2\n      0x20\n      add\n      swap2\n      jump(tag_20)\n    tag_21:\n      dup3\n      add\n      swap2\n      swap1\n      0x00\n      mstore\n      keccak256(0x00, 0x20)\n      swap1\n    tag_22:\n      dup2\n      sload\n      dup2\n      mstore\n      swap1\n      0x01\n      add\n      swap1\n      0x20\n      add\n      dup1\n      dup4\n      gt\n      tag_22\n      jumpi\n      dup3\n      swap1\n      sub\n      0x1f\n      and\n      dup3\n      add\n      swap2\n    tag_20:\n      pop\n      pop\n      pop\n      pop\n      pop\n      swap1\n      pop\n        /* \"contracts/Greeting.sol\":642:732  function getSaludo() public view returns (string memory) {... */\n      swap1\n      jump\t// out\n        /* \"contracts/Greeting.sol\":1421:1787  function greetTheUniverse() public {... */\n    tag_11:\n        /* \"contracts/Greeting.sol\":1543:1562  uint256 randomIndex */\n      0x00\n        /* \"contracts/Greeting.sol\":1633:1634  3 */\n      0x03\n        /* \"contracts/Greeting.sol\":1600:1615  block.timestamp */\n      timestamp\n        /* \"contracts/Greeting.sol\":1617:1627  msg.sender */\n      caller\n        /* \"contracts/Greeting.sol\":1583:1628  abi.encodePacked(block.timestamp, msg.sender) */\n      add(0x20, mload(0x40))\n      tag_24\n      swap3\n      swap2\n      swap1\n      tag_25\n      jump\t// in\n    tag_24:\n      mload(0x40)\n      0x20\n      dup2\n      dup4\n      sub\n      sub\n      dup2\n      mstore\n      swap1\n      0x40\n      mstore\n        /* \"contracts/Greeting.sol\":1573:1629  keccak256(abi.encodePacked(block.timestamp, msg.sender)) */\n      dup1\n      mload\n      swap1\n      0x20\n      add\n      keccak256\n        /* \"contracts/Greeting.sol\":1565:1630  uint256(keccak256(abi.encodePacked(block.timestamp, msg.sender))) */\n      0x00\n      shr\n        /* \"contracts/Greeting.sol\":1565:1634  uint256(keccak256(abi.encodePacked(block.timestamp, msg.sender))) % 3 */\n      tag_26\n      swap2\n      swap1\n      tag_27\n      jump\t// in\n    tag_26:\n        /* \"contracts/Greeting.sol\":1543:1634  uint256 randomIndex = uint256(keccak256(abi.encodePacked(block.timestamp, msg.sender))) % 3 */\n      swap1\n      pop\n        /* \"contracts/Greeting.sol\":1645:1670  string memory nuevoSaludo */\n      0x00\n        /* \"contracts/Greeting.sol\":1673:1688  saludosCosmicos */\n      0x01\n        /* \"contracts/Greeting.sol\":1689:1700  randomIndex */\n      dup3\n        /* \"contracts/Greeting.sol\":1673:1701  saludosCosmicos[randomIndex] */\n      0x03\n      dup2\n      lt\n      tag_28\n      jumpi\n      tag_29\n      tag_30\n      jump\t// in\n    tag_29:\n    tag_28:\n      add\n        /* \"contracts/Greeting.sol\":1645:1701  string memory nuevoSaludo = saludosCosmicos[randomIndex] */\n      dup1\n      sload\n      tag_32\n      swap1\n      tag_18\n      jump\t// in\n    tag_32:\n      dup1\n      0x1f\n      add\n      0x20\n      dup1\n      swap2\n      div\n      mul\n      0x20\n      add\n      mload(0x40)\n      swap1\n      dup2\n      add\n      0x40\n      mstore\n      dup1\n      swap3\n      swap2\n      swap1\n      dup2\n      dup2\n      mstore\n      0x20\n      add\n      dup3\n      dup1\n      sload\n      tag_33\n      swap1\n      tag_18\n      jump\t// in\n    tag_33:\n      dup1\n      iszero\n      tag_34\n      jumpi\n      dup1\n      0x1f\n      lt\n      tag_35\n      jumpi\n      0x0100\n      dup1\n      dup4\n      sload\n      div\n      mul\n      dup4\n      mstore\n      swap2\n      0x20\n      add\n      swap2\n      jump(tag_34)\n    tag_35:\n      dup3\n      add\n      swap2\n      swap1\n      0x00\n      mstore\n      keccak256(0x00, 0x20)\n      swap1\n    tag_36:\n      dup2\n      sload\n      dup2\n      mstore\n      swap1\n      0x01\n      add\n      swap1\n      0x20\n      add\n      dup1\n      dup4\n      gt\n      tag_36\n      jumpi\n      dup3\n      swap1\n      sub\n      0x1f\n      and\n      dup3\n      add\n      swap2\n    tag_34:\n      pop\n      pop\n      pop\n      pop\n      pop\n      swap1\n      pop\n        /* \"contracts/Greeting.sol\":1722:1733  nuevoSaludo */\n      dup1\n        /* \"contracts/Greeting.sol\":1712:1719  _saludo */\n      0x00\n        /* \"contracts/Greeting.sol\":1712:1733  _saludo = nuevoSaludo */\n      swap1\n      dup2\n      tag_37\n      swap2\n      swap1\n      tag_38\n      jump\t// in\n    tag_37:\n      pop\n        /* \"contracts/Greeting.sol\":1749:1779  SaludoActualizado(nuevoSaludo) */\n      0x575fc9a8feaf6083d0faa38901ff3a6bb92fee1d07747197fd88d86066c507ba\n        /* \"contracts/Greeting.sol\":1767:1778  nuevoSaludo */\n      dup2\n        /* \"contracts/Greeting.sol\":1749:1779  SaludoActualizado(nuevoSaludo) */\n      mload(0x40)\n      tag_39\n      swap2\n      swap1\n      tag_9\n      jump\t// in\n    tag_39:\n      mload(0x40)\n      dup1\n      swap2\n      sub\n      swap1\n      log1\n        /* \"contracts/Greeting.sol\":1456:1787  {... */\n      pop\n      pop\n        /* \"contracts/Greeting.sol\":1421:1787  function greetTheUniverse() public {... */\n      jump\t// out\n        /* \"contracts/Greeting.sol\":836:1111  function setSaludo(string memory nuevoSaludo) public {... */\n    tag_15:\n        /* \"contracts/Greeting.sol\":936:937  0 */\n      0x00\n        /* \"contracts/Greeting.sol\":914:925  nuevoSaludo */\n      dup2\n        /* \"contracts/Greeting.sol\":908:933  bytes(nuevoSaludo).length */\n      mload\n        /* \"contracts/Greeting.sol\":908:937  bytes(nuevoSaludo).length > 0 */\n      gt\n        /* \"contracts/Greeting.sol\":900:972  require(bytes(nuevoSaludo).length > 0, \"El saludo no puede estar vacio\") */\n      tag_41\n      jumpi\n      mload(0x40)\n      0x08c379a000000000000000000000000000000000000000000000000000000000\n      dup2\n      mstore\n      0x04\n      add\n      tag_42\n      swap1\n      tag_43\n      jump\t// in\n    tag_42:\n      mload(0x40)\n      dup1\n      swap2\n      sub\n      swap1\n      revert\n    tag_41:\n        /* \"contracts/Greeting.sol\":1018:1029  nuevoSaludo */\n      dup1\n        /* \"contracts/Greeting.sol\":1008:1015  _saludo */\n      0x00\n        /* \"contracts/Greeting.sol\":1008:1029  _saludo = nuevoSaludo */\n      swap1\n      dup2\n      tag_44\n      swap2\n      swap1\n      tag_38\n      jump\t// in\n    tag_44:\n      pop\n        /* \"contracts/Greeting.sol\":1045:1075  SaludoActualizado(nuevoSaludo) */\n      0x575fc9a8feaf6083d0faa38901ff3a6bb92fee1d07747197fd88d86066c507ba\n        /* \"contracts/Greeting.sol\":1063:1074  nuevoSaludo */\n      dup2\n        /* \"contracts/Greeting.sol\":1045:1075  SaludoActualizado(nuevoSaludo) */\n      mload(0x40)\n      tag_45\n      swap2\n      swap1\n      tag_9\n      jump\t// in\n    tag_45:\n      mload(0x40)\n      dup1\n      swap2\n      sub\n      swap1\n      log1\n        /* \"contracts/Greeting.sol\":836:1111  function setSaludo(string memory nuevoSaludo) public {... */\n      pop\n      jump\t// out\n        /* \"#utility.yul\":7:106   */\n    tag_46:\n        /* \"#utility.yul\":59:65   */\n      0x00\n        /* \"#utility.yul\":93:98   */\n      dup2\n        /* \"#utility.yul\":87:99   */\n      mload\n        /* \"#utility.yul\":77:99   */\n      swap1\n      pop\n        /* \"#utility.yul\":7:106   */\n      swap2\n      swap1\n      pop\n      jump\t// out\n        /* \"#utility.yul\":112:281   */\n    tag_47:\n        /* \"#utility.yul\":196:207   */\n      0x00\n        /* \"#utility.yul\":230:236   */\n      dup3\n        /* \"#utility.yul\":225:228   */\n      dup3\n        /* \"#utility.yul\":218:237   */\n      mstore\n        /* \"#utility.yul\":270:274   */\n      0x20\n        /* \"#utility.yul\":265:268   */\n      dup3\n        /* \"#utility.yul\":261:275   */\n      add\n        /* \"#utility.yul\":246:275   */\n      swap1\n      pop\n        /* \"#utility.yul\":112:281   */\n      swap3\n      swap2\n      pop\n      pop\n      jump\t// out\n        /* \"#utility.yul\":287:426   */\n    tag_48:\n        /* \"#utility.yul\":376:382   */\n      dup3\n        /* \"#utility.yul\":371:374   */\n      dup2\n        /* \"#utility.yul\":366:369   */\n      dup4\n        /* \"#utility.yul\":360:383   */\n      mcopy\n        /* \"#utility.yul\":417:418   */\n      0x00\n        /* \"#utility.yul\":408:414   */\n      dup4\n        /* \"#utility.yul\":403:406   */\n      dup4\n        /* \"#utility.yul\":399:415   */\n      add\n        /* \"#utility.yul\":392:419   */\n      mstore\n        /* \"#utility.yul\":287:426   */\n      pop\n      pop\n      pop\n      jump\t// out\n        /* \"#utility.yul\":432:534   */\n    tag_49:\n        /* \"#utility.yul\":473:479   */\n      0x00\n        /* \"#utility.yul\":524:526   */\n      0x1f\n        /* \"#utility.yul\":520:527   */\n      not\n        /* \"#utility.yul\":515:517   */\n      0x1f\n        /* \"#utility.yul\":508:513   */\n      dup4\n        /* \"#utility.yul\":504:518   */\n      add\n        /* \"#utility.yul\":500:528   */\n      and\n        /* \"#utility.yul\":490:528   */\n      swap1\n      pop\n        /* \"#utility.yul\":432:534   */\n      swap2\n      swap1\n      pop\n      jump\t// out\n        /* \"#utility.yul\":540:917   */\n    tag_50:\n        /* \"#utility.yul\":628:631   */\n      0x00\n        /* \"#utility.yul\":656:695   */\n      tag_97\n        /* \"#utility.yul\":689:694   */\n      dup3\n        /* \"#utility.yul\":656:695   */\n      tag_46\n      jump\t// in\n    tag_97:\n        /* \"#utility.yul\":711:782   */\n      tag_98\n        /* \"#utility.yul\":775:781   */\n      dup2\n        /* \"#utility.yul\":770:773   */\n      dup6\n        /* \"#utility.yul\":711:782   */\n      tag_47\n      jump\t// in\n    tag_98:\n        /* \"#utility.yul\":704:782   */\n      swap4\n      pop\n        /* \"#utility.yul\":791:856   */\n      tag_99\n        /* \"#utility.yul\":849:855   */\n      dup2\n        /* \"#utility.yul\":844:847   */\n      dup6\n        /* \"#utility.yul\":837:841   */\n      0x20\n        /* \"#utility.yul\":830:835   */\n      dup7\n        /* \"#utility.yul\":826:842   */\n      add\n        /* \"#utility.yul\":791:856   */\n      tag_48\n      jump\t// in\n    tag_99:\n        /* \"#utility.yul\":881:910   */\n      tag_100\n        /* \"#utility.yul\":903:909   */\n      dup2\n        /* \"#utility.yul\":881:910   */\n      tag_49\n      jump\t// in\n    tag_100:\n        /* \"#utility.yul\":876:879   */\n      dup5\n        /* \"#utility.yul\":872:911   */\n      add\n        /* \"#utility.yul\":865:911   */\n      swap2\n      pop\n        /* \"#utility.yul\":632:917   */\n      pop\n        /* \"#utility.yul\":540:917   */\n      swap3\n      swap2\n      pop\n      pop\n      jump\t// out\n        /* \"#utility.yul\":923:1236   */\n    tag_9:\n        /* \"#utility.yul\":1036:1040   */\n      0x00\n        /* \"#utility.yul\":1074:1076   */\n      0x20\n        /* \"#utility.yul\":1063:1072   */\n      dup3\n        /* \"#utility.yul\":1059:1077   */\n      add\n        /* \"#utility.yul\":1051:1077   */\n      swap1\n      pop\n        /* \"#utility.yul\":1123:1132   */\n      dup2\n        /* \"#utility.yul\":1117:1121   */\n      dup2\n        /* \"#utility.yul\":1113:1133   */\n      sub\n        /* \"#utility.yul\":1109:1110   */\n      0x00\n        /* \"#utility.yul\":1098:1107   */\n      dup4\n        /* \"#utility.yul\":1094:1111   */\n      add\n        /* \"#utility.yul\":1087:1134   */\n      mstore\n        /* \"#utility.yul\":1151:1229   */\n      tag_102\n        /* \"#utility.yul\":1224:1228   */\n      dup2\n        /* \"#utility.yul\":1215:1221   */\n      dup5\n        /* \"#utility.yul\":1151:1229   */\n      tag_50\n      jump\t// in\n    tag_102:\n        /* \"#utility.yul\":1143:1229   */\n      swap1\n      pop\n        /* \"#utility.yul\":923:1236   */\n      swap3\n      swap2\n      pop\n      pop\n      jump\t// out\n        /* \"#utility.yul\":1242:1317   */\n    tag_51:\n        /* \"#utility.yul\":1275:1281   */\n      0x00\n        /* \"#utility.yul\":1308:1310   */\n      0x40\n        /* \"#utility.yul\":1302:1311   */\n      mload\n        /* \"#utility.yul\":1292:1311   */\n      swap1\n      pop\n        /* \"#utility.yul\":1242:1317   */\n      swap1\n      jump\t// out\n        /* \"#utility.yul\":1323:1440   */\n    tag_52:\n        /* \"#utility.yul\":1432:1433   */\n      0x00\n        /* \"#utility.yul\":1429:1430   */\n      0x00\n        /* \"#utility.yul\":1422:1434   */\n      revert\n        /* \"#utility.yul\":1446:1563   */\n    tag_53:\n        /* \"#utility.yul\":1555:1556   */\n      0x00\n        /* \"#utility.yul\":1552:1553   */\n      0x00\n        /* \"#utility.yul\":1545:1557   */\n      revert\n        /* \"#utility.yul\":1569:1686   */\n    tag_54:\n        /* \"#utility.yul\":1678:1679   */\n      0x00\n        /* \"#utility.yul\":1675:1676   */\n      0x00\n        /* \"#utility.yul\":1668:1680   */\n      revert\n        /* \"#utility.yul\":1692:1809   */\n    tag_55:\n        /* \"#utility.yul\":1801:1802   */\n      0x00\n        /* \"#utility.yul\":1798:1799   */\n      0x00\n        /* \"#utility.yul\":1791:1803   */\n      revert\n        /* \"#utility.yul\":1815:1995   */\n    tag_56:\n        /* \"#utility.yul\":1863:1940   */\n      0x4e487b7100000000000000000000000000000000000000000000000000000000\n        /* \"#utility.yul\":1860:1861   */\n      0x00\n        /* \"#utility.yul\":1853:1941   */\n      mstore\n        /* \"#utility.yul\":1960:1964   */\n      0x41\n        /* \"#utility.yul\":1957:1958   */\n      0x04\n        /* \"#utility.yul\":1950:1965   */\n      mstore\n        /* \"#utility.yul\":1984:1988   */\n      0x24\n        /* \"#utility.yul\":1981:1982   */\n      0x00\n        /* \"#utility.yul\":1974:1989   */\n      revert\n        /* \"#utility.yul\":2001:2282   */\n    tag_57:\n        /* \"#utility.yul\":2084:2111   */\n      tag_110\n        /* \"#utility.yul\":2106:2110   */\n      dup3\n        /* \"#utility.yul\":2084:2111   */\n      tag_49\n      jump\t// in\n    tag_110:\n        /* \"#utility.yul\":2076:2082   */\n      dup2\n        /* \"#utility.yul\":2072:2112   */\n      add\n        /* \"#utility.yul\":2214:2220   */\n      dup2\n        /* \"#utility.yul\":2202:2212   */\n      dup2\n        /* \"#utility.yul\":2199:2221   */\n      lt\n        /* \"#utility.yul\":2178:2196   */\n      0xffffffffffffffff\n        /* \"#utility.yul\":2166:2176   */\n      dup3\n        /* \"#utility.yul\":2163:2197   */\n      gt\n        /* \"#utility.yul\":2160:2222   */\n      or\n        /* \"#utility.yul\":2157:2245   */\n      iszero\n      tag_111\n      jumpi\n        /* \"#utility.yul\":2225:2243   */\n      tag_112\n      tag_56\n      jump\t// in\n    tag_112:\n        /* \"#utility.yul\":2157:2245   */\n    tag_111:\n        /* \"#utility.yul\":2265:2275   */\n      dup1\n        /* \"#utility.yul\":2261:2263   */\n      0x40\n        /* \"#utility.yul\":2254:2276   */\n      mstore\n        /* \"#utility.yul\":2044:2282   */\n      pop\n        /* \"#utility.yul\":2001:2282   */\n      pop\n      pop\n      jump\t// out\n        /* \"#utility.yul\":2288:2417   */\n    tag_58:\n        /* \"#utility.yul\":2322:2328   */\n      0x00\n        /* \"#utility.yul\":2349:2369   */\n      tag_114\n      tag_51\n      jump\t// in\n    tag_114:\n        /* \"#utility.yul\":2339:2369   */\n      swap1\n      pop\n        /* \"#utility.yul\":2378:2411   */\n      tag_115\n        /* \"#utility.yul\":2406:2410   */\n      dup3\n        /* \"#utility.yul\":2398:2404   */\n      dup3\n        /* \"#utility.yul\":2378:2411   */\n      tag_57\n      jump\t// in\n    tag_115:\n        /* \"#utility.yul\":2288:2417   */\n      swap2\n      swap1\n      pop\n      jump\t// out\n        /* \"#utility.yul\":2423:2731   */\n    tag_59:\n        /* \"#utility.yul\":2485:2489   */\n      0x00\n        /* \"#utility.yul\":2575:2593   */\n      0xffffffffffffffff\n        /* \"#utility.yul\":2567:2573   */\n      dup3\n        /* \"#utility.yul\":2564:2594   */\n      gt\n        /* \"#utility.yul\":2561:2617   */\n      iszero\n      tag_117\n      jumpi\n        /* \"#utility.yul\":2597:2615   */\n      tag_118\n      tag_56\n      jump\t// in\n    tag_118:\n        /* \"#utility.yul\":2561:2617   */\n    tag_117:\n        /* \"#utility.yul\":2635:2664   */\n      tag_119\n        /* \"#utility.yul\":2657:2663   */\n      dup3\n        /* \"#utility.yul\":2635:2664   */\n      tag_49\n      jump\t// in\n    tag_119:\n        /* \"#utility.yul\":2627:2664   */\n      swap1\n      pop\n        /* \"#utility.yul\":2719:2723   */\n      0x20\n        /* \"#utility.yul\":2713:2717   */\n      dup2\n        /* \"#utility.yul\":2709:2724   */\n      add\n        /* \"#utility.yul\":2701:2724   */\n      swap1\n      pop\n        /* \"#utility.yul\":2423:2731   */\n      swap2\n      swap1\n      pop\n      jump\t// out\n        /* \"#utility.yul\":2737:2885   */\n    tag_60:\n        /* \"#utility.yul\":2835:2841   */\n      dup3\n        /* \"#utility.yul\":2830:2833   */\n      dup2\n        /* \"#utility.yul\":2825:2828   */\n      dup4\n        /* \"#utility.yul\":2812:2842   */\n      calldatacopy\n        /* \"#utility.yul\":2876:2877   */\n      0x00\n        /* \"#utility.yul\":2867:2873   */\n      dup4\n        /* \"#utility.yul\":2862:2865   */\n      dup4\n        /* \"#utility.yul\":2858:2874   */\n      add\n        /* \"#utility.yul\":2851:2878   */\n      mstore\n        /* \"#utility.yul\":2737:2885   */\n      pop\n      pop\n      pop\n      jump\t// out\n        /* \"#utility.yul\":2891:3316   */\n    tag_61:\n        /* \"#utility.yul\":2969:2974   */\n      0x00\n        /* \"#utility.yul\":2994:3060   */\n      tag_122\n        /* \"#utility.yul\":3010:3059   */\n      tag_123\n        /* \"#utility.yul\":3052:3058   */\n      dup5\n        /* \"#utility.yul\":3010:3059   */\n      tag_59\n      jump\t// in\n    tag_123:\n        /* \"#utility.yul\":2994:3060   */\n      tag_58\n      jump\t// in\n    tag_122:\n        /* \"#utility.yul\":2985:3060   */\n      swap1\n      pop\n        /* \"#utility.yul\":3083:3089   */\n      dup3\n        /* \"#utility.yul\":3076:3081   */\n      dup2\n        /* \"#utility.yul\":3069:3090   */\n      mstore\n        /* \"#utility.yul\":3121:3125   */\n      0x20\n        /* \"#utility.yul\":3114:3119   */\n      dup2\n        /* \"#utility.yul\":3110:3126   */\n      add\n        /* \"#utility.yul\":3159:3162   */\n      dup5\n        /* \"#utility.yul\":3150:3156   */\n      dup5\n        /* \"#utility.yul\":3145:3148   */\n      dup5\n        /* \"#utility.yul\":3141:3157   */\n      add\n        /* \"#utility.yul\":3138:3163   */\n      gt\n        /* \"#utility.yul\":3135:3247   */\n      iszero\n      tag_124\n      jumpi\n        /* \"#utility.yul\":3166:3245   */\n      tag_125\n      tag_55\n      jump\t// in\n    tag_125:\n        /* \"#utility.yul\":3135:3247   */\n    tag_124:\n        /* \"#utility.yul\":3256:3310   */\n      tag_126\n        /* \"#utility.yul\":3303:3309   */\n      dup5\n        /* \"#utility.yul\":3298:3301   */\n      dup3\n        /* \"#utility.yul\":3293:3296   */\n      dup6\n        /* \"#utility.yul\":3256:3310   */\n      tag_60\n      jump\t// in\n    tag_126:\n        /* \"#utility.yul\":2975:3316   */\n      pop\n        /* \"#utility.yul\":2891:3316   */\n      swap4\n      swap3\n      pop\n      pop\n      pop\n      jump\t// out\n        /* \"#utility.yul\":3336:3676   */\n    tag_62:\n        /* \"#utility.yul\":3392:3397   */\n      0x00\n        /* \"#utility.yul\":3441:3444   */\n      dup3\n        /* \"#utility.yul\":3434:3438   */\n      0x1f\n        /* \"#utility.yul\":3426:3432   */\n      dup4\n        /* \"#utility.yul\":3422:3439   */\n      add\n        /* \"#utility.yul\":3418:3445   */\n      slt\n        /* \"#utility.yul\":3408:3530   */\n      tag_128\n      jumpi\n        /* \"#utility.yul\":3449:3528   */\n      tag_129\n      tag_54\n      jump\t// in\n    tag_129:\n        /* \"#utility.yul\":3408:3530   */\n    tag_128:\n        /* \"#utility.yul\":3566:3572   */\n      dup2\n        /* \"#utility.yul\":3553:3573   */\n      calldataload\n        /* \"#utility.yul\":3591:3670   */\n      tag_130\n        /* \"#utility.yul\":3666:3669   */\n      dup5\n        /* \"#utility.yul\":3658:3664   */\n      dup3\n        /* \"#utility.yul\":3651:3655   */\n      0x20\n        /* \"#utility.yul\":3643:3649   */\n      dup7\n        /* \"#utility.yul\":3639:3656   */\n      add\n        /* \"#utility.yul\":3591:3670   */\n      tag_61\n      jump\t// in\n    tag_130:\n        /* \"#utility.yul\":3582:3670   */\n      swap2\n      pop\n        /* \"#utility.yul\":3398:3676   */\n      pop\n        /* \"#utility.yul\":3336:3676   */\n      swap3\n      swap2\n      pop\n      pop\n      jump\t// out\n        /* \"#utility.yul\":3682:4191   */\n    tag_14:\n        /* \"#utility.yul\":3751:3757   */\n      0x00\n        /* \"#utility.yul\":3800:3802   */\n      0x20\n        /* \"#utility.yul\":3788:3797   */\n      dup3\n        /* \"#utility.yul\":3779:3786   */\n      dup5\n        /* \"#utility.yul\":3775:3798   */\n      sub\n        /* \"#utility.yul\":3771:3803   */\n      slt\n        /* \"#utility.yul\":3768:3887   */\n      iszero\n      tag_132\n      jumpi\n        /* \"#utility.yul\":3806:3885   */\n      tag_133\n      tag_52\n      jump\t// in\n    tag_133:\n        /* \"#utility.yul\":3768:3887   */\n    tag_132:\n        /* \"#utility.yul\":3954:3955   */\n      0x00\n        /* \"#utility.yul\":3943:3952   */\n      dup3\n        /* \"#utility.yul\":3939:3956   */\n      add\n        /* \"#utility.yul\":3926:3957   */\n      calldataload\n        /* \"#utility.yul\":3984:4002   */\n      0xffffffffffffffff\n        /* \"#utility.yul\":3976:3982   */\n      dup2\n        /* \"#utility.yul\":3973:4003   */\n      gt\n        /* \"#utility.yul\":3970:4087   */\n      iszero\n      tag_134\n      jumpi\n        /* \"#utility.yul\":4006:4085   */\n      tag_135\n      tag_53\n      jump\t// in\n    tag_135:\n        /* \"#utility.yul\":3970:4087   */\n    tag_134:\n        /* \"#utility.yul\":4111:4174   */\n      tag_136\n        /* \"#utility.yul\":4166:4173   */\n      dup5\n        /* \"#utility.yul\":4157:4163   */\n      dup3\n        /* \"#utility.yul\":4146:4155   */\n      dup6\n        /* \"#utility.yul\":4142:4164   */\n      add\n        /* \"#utility.yul\":4111:4174   */\n      tag_62\n      jump\t// in\n    tag_136:\n        /* \"#utility.yul\":4101:4174   */\n      swap2\n      pop\n        /* \"#utility.yul\":3897:4184   */\n      pop\n        /* \"#utility.yul\":3682:4191   */\n      swap3\n      swap2\n      pop\n      pop\n      jump\t// out\n        /* \"#utility.yul\":4197:4377   */\n    tag_63:\n        /* \"#utility.yul\":4245:4322   */\n      0x4e487b7100000000000000000000000000000000000000000000000000000000\n        /* \"#utility.yul\":4242:4243   */\n      0x00\n        /* \"#utility.yul\":4235:4323   */\n      mstore\n        /* \"#utility.yul\":4342:4346   */\n      0x22\n        /* \"#utility.yul\":4339:4340   */\n      0x04\n        /* \"#utility.yul\":4332:4347   */\n      mstore\n        /* \"#utility.yul\":4366:4370   */\n      0x24\n        /* \"#utility.yul\":4363:4364   */\n      0x00\n        /* \"#utility.yul\":4356:4371   */\n      revert\n        /* \"#utility.yul\":4383:4703   */\n    tag_18:\n        /* \"#utility.yul\":4427:4433   */\n      0x00\n        /* \"#utility.yul\":4464:4465   */\n      0x02\n        /* \"#utility.yul\":4458:4462   */\n      dup3\n        /* \"#utility.yul\":4454:4466   */\n      div\n        /* \"#utility.yul\":4444:4466   */\n      swap1\n      pop\n        /* \"#utility.yul\":4511:4512   */\n      0x01\n        /* \"#utility.yul\":4505:4509   */\n      dup3\n        /* \"#utility.yul\":4501:4513   */\n      and\n        /* \"#utility.yul\":4532:4550   */\n      dup1\n        /* \"#utility.yul\":4522:4603   */\n      tag_139\n      jumpi\n        /* \"#utility.yul\":4588:4592   */\n      0x7f\n        /* \"#utility.yul\":4580:4586   */\n      dup3\n        /* \"#utility.yul\":4576:4593   */\n      and\n        /* \"#utility.yul\":4566:4593   */\n      swap2\n      pop\n        /* \"#utility.yul\":4522:4603   */\n    tag_139:\n        /* \"#utility.yul\":4650:4652   */\n      0x20\n        /* \"#utility.yul\":4642:4648   */\n      dup3\n        /* \"#utility.yul\":4639:4653   */\n      lt\n        /* \"#utility.yul\":4619:4637   */\n      dup2\n        /* \"#utility.yul\":4616:4654   */\n      sub\n        /* \"#utility.yul\":4613:4697   */\n      tag_140\n      jumpi\n        /* \"#utility.yul\":4669:4687   */\n      tag_141\n      tag_63\n      jump\t// in\n    tag_141:\n        /* \"#utility.yul\":4613:4697   */\n    tag_140:\n        /* \"#utility.yul\":4434:4703   */\n      pop\n        /* \"#utility.yul\":4383:4703   */\n      swap2\n      swap1\n      pop\n      jump\t// out\n        /* \"#utility.yul\":4709:4786   */\n    tag_64:\n        /* \"#utility.yul\":4746:4753   */\n      0x00\n        /* \"#utility.yul\":4775:4780   */\n      dup2\n        /* \"#utility.yul\":4764:4780   */\n      swap1\n      pop\n        /* \"#utility.yul\":4709:4786   */\n      swap2\n      swap1\n      pop\n      jump\t// out\n        /* \"#utility.yul\":4792:4871   */\n    tag_65:\n        /* \"#utility.yul\":4831:4838   */\n      0x00\n        /* \"#utility.yul\":4860:4865   */\n      dup2\n        /* \"#utility.yul\":4849:4865   */\n      swap1\n      pop\n        /* \"#utility.yul\":4792:4871   */\n      swap2\n      swap1\n      pop\n      jump\t// out\n        /* \"#utility.yul\":4877:5034   */\n    tag_66:\n        /* \"#utility.yul\":4982:5027   */\n      tag_145\n        /* \"#utility.yul\":5002:5026   */\n      tag_146\n        /* \"#utility.yul\":5020:5025   */\n      dup3\n        /* \"#utility.yul\":5002:5026   */\n      tag_64\n      jump\t// in\n    tag_146:\n        /* \"#utility.yul\":4982:5027   */\n      tag_65\n      jump\t// in\n    tag_145:\n        /* \"#utility.yul\":4977:4980   */\n      dup3\n        /* \"#utility.yul\":4970:5028   */\n      mstore\n        /* \"#utility.yul\":4877:5034   */\n      pop\n      pop\n      jump\t// out\n        /* \"#utility.yul\":5040:5166   */\n    tag_67:\n        /* \"#utility.yul\":5077:5084   */\n      0x00\n        /* \"#utility.yul\":5117:5159   */\n      0xffffffffffffffffffffffffffffffffffffffff\n        /* \"#utility.yul\":5110:5115   */\n      dup3\n        /* \"#utility.yul\":5106:5160   */\n      and\n        /* \"#utility.yul\":5095:5160   */\n      swap1\n      pop\n        /* \"#utility.yul\":5040:5166   */\n      swap2\n      swap1\n      pop\n      jump\t// out\n        /* \"#utility.yul\":5172:5268   */\n    tag_68:\n        /* \"#utility.yul\":5209:5216   */\n      0x00\n        /* \"#utility.yul\":5238:5262   */\n      tag_149\n        /* \"#utility.yul\":5256:5261   */\n      dup3\n        /* \"#utility.yul\":5238:5262   */\n      tag_67\n      jump\t// in\n    tag_149:\n        /* \"#utility.yul\":5227:5262   */\n      swap1\n      pop\n        /* \"#utility.yul\":5172:5268   */\n      swap2\n      swap1\n      pop\n      jump\t// out\n        /* \"#utility.yul\":5274:5368   */\n    tag_69:\n        /* \"#utility.yul\":5307:5315   */\n      0x00\n        /* \"#utility.yul\":5355:5360   */\n      dup2\n        /* \"#utility.yul\":5351:5353   */\n      0x60\n        /* \"#utility.yul\":5347:5361   */\n      shl\n        /* \"#utility.yul\":5326:5361   */\n      swap1\n      pop\n        /* \"#utility.yul\":5274:5368   */\n      swap2\n      swap1\n      pop\n      jump\t// out\n        /* \"#utility.yul\":5374:5468   */\n    tag_70:\n        /* \"#utility.yul\":5413:5420   */\n      0x00\n        /* \"#utility.yul\":5442:5462   */\n      tag_152\n        /* \"#utility.yul\":5456:5461   */\n      dup3\n        /* \"#utility.yul\":5442:5462   */\n      tag_69\n      jump\t// in\n    tag_152:\n        /* \"#utility.yul\":5431:5462   */\n      swap1\n      pop\n        /* \"#utility.yul\":5374:5468   */\n      swap2\n      swap1\n      pop\n      jump\t// out\n        /* \"#utility.yul\":5474:5574   */\n    tag_71:\n        /* \"#utility.yul\":5513:5520   */\n      0x00\n        /* \"#utility.yul\":5542:5568   */\n      tag_154\n        /* \"#utility.yul\":5562:5567   */\n      dup3\n        /* \"#utility.yul\":5542:5568   */\n      tag_70\n      jump\t// in\n    tag_154:\n        /* \"#utility.yul\":5531:5568   */\n      swap1\n      pop\n        /* \"#utility.yul\":5474:5574   */\n      swap2\n      swap1\n      pop\n      jump\t// out\n        /* \"#utility.yul\":5580:5737   */\n    tag_72:\n        /* \"#utility.yul\":5685:5730   */\n      tag_156\n        /* \"#utility.yul\":5705:5729   */\n      tag_157\n        /* \"#utility.yul\":5723:5728   */\n      dup3\n        /* \"#utility.yul\":5705:5729   */\n      tag_68\n      jump\t// in\n    tag_157:\n        /* \"#utility.yul\":5685:5730   */\n      tag_71\n      jump\t// in\n    tag_156:\n        /* \"#utility.yul\":5680:5683   */\n      dup3\n        /* \"#utility.yul\":5673:5731   */\n      mstore\n        /* \"#utility.yul\":5580:5737   */\n      pop\n      pop\n      jump\t// out\n        /* \"#utility.yul\":5743:6140   */\n    tag_25:\n        /* \"#utility.yul\":5883:5886   */\n      0x00\n        /* \"#utility.yul\":5898:5973   */\n      tag_159\n        /* \"#utility.yul\":5969:5972   */\n      dup3\n        /* \"#utility.yul\":5960:5966   */\n      dup6\n        /* \"#utility.yul\":5898:5973   */\n      tag_66\n      jump\t// in\n    tag_159:\n        /* \"#utility.yul\":5998:6000   */\n      0x20\n        /* \"#utility.yul\":5993:5996   */\n      dup3\n        /* \"#utility.yul\":5989:6001   */\n      add\n        /* \"#utility.yul\":5982:6001   */\n      swap2\n      pop\n        /* \"#utility.yul\":6011:6086   */\n      tag_160\n        /* \"#utility.yul\":6082:6085   */\n      dup3\n        /* \"#utility.yul\":6073:6079   */\n      dup5\n        /* \"#utility.yul\":6011:6086   */\n      tag_72\n      jump\t// in\n    tag_160:\n        /* \"#utility.yul\":6111:6113   */\n      0x14\n        /* \"#utility.yul\":6106:6109   */\n      dup3\n        /* \"#utility.yul\":6102:6114   */\n      add\n        /* \"#utility.yul\":6095:6114   */\n      swap2\n      pop\n        /* \"#utility.yul\":6131:6134   */\n      dup2\n        /* \"#utility.yul\":6124:6134   */\n      swap1\n      pop\n        /* \"#utility.yul\":5743:6140   */\n      swap4\n      swap3\n      pop\n      pop\n      pop\n      jump\t// out\n        /* \"#utility.yul\":6146:6326   */\n    tag_73:\n        /* \"#utility.yul\":6194:6271   */\n      0x4e487b7100000000000000000000000000000000000000000000000000000000\n        /* \"#utility.yul\":6191:6192   */\n      0x00\n        /* \"#utility.yul\":6184:6272   */\n      mstore\n        /* \"#utility.yul\":6291:6295   */\n      0x12\n        /* \"#utility.yul\":6288:6289   */\n      0x04\n        /* \"#utility.yul\":6281:6296   */\n      mstore\n        /* \"#utility.yul\":6315:6319   */\n      0x24\n        /* \"#utility.yul\":6312:6313   */\n      0x00\n        /* \"#utility.yul\":6305:6320   */\n      revert\n        /* \"#utility.yul\":6332:6508   */\n    tag_27:\n        /* \"#utility.yul\":6364:6365   */\n      0x00\n        /* \"#utility.yul\":6381:6401   */\n      tag_163\n        /* \"#utility.yul\":6399:6400   */\n      dup3\n        /* \"#utility.yul\":6381:6401   */\n      tag_64\n      jump\t// in\n    tag_163:\n        /* \"#utility.yul\":6376:6401   */\n      swap2\n      pop\n        /* \"#utility.yul\":6415:6435   */\n      tag_164\n        /* \"#utility.yul\":6433:6434   */\n      dup4\n        /* \"#utility.yul\":6415:6435   */\n      tag_64\n      jump\t// in\n    tag_164:\n        /* \"#utility.yul\":6410:6435   */\n      swap3\n      pop\n        /* \"#utility.yul\":6454:6455   */\n      dup3\n        /* \"#utility.yul\":6444:6479   */\n      tag_165\n      jumpi\n        /* \"#utility.yul\":6459:6477   */\n      tag_166\n      tag_73\n      jump\t// in\n    tag_166:\n        /* \"#utility.yul\":6444:6479   */\n    tag_165:\n        /* \"#utility.yul\":6500:6501   */\n      dup3\n        /* \"#utility.yul\":6497:6498   */\n      dup3\n        /* \"#utility.yul\":6493:6502   */\n      mod\n        /* \"#utility.yul\":6488:6502   */\n      swap1\n      pop\n        /* \"#utility.yul\":6332:6508   */\n      swap3\n      swap2\n      pop\n      pop\n      jump\t// out\n        /* \"#utility.yul\":6514:6694   */\n    tag_30:\n        /* \"#utility.yul\":6562:6639   */\n      0x4e487b7100000000000000000000000000000000000000000000000000000000\n        /* \"#utility.yul\":6559:6560   */\n      0x00\n        /* \"#utility.yul\":6552:6640   */\n      mstore\n        /* \"#utility.yul\":6659:6663   */\n      0x32\n        /* \"#utility.yul\":6656:6657   */\n      0x04\n        /* \"#utility.yul\":6649:6664   */\n      mstore\n        /* \"#utility.yul\":6683:6687   */\n      0x24\n        /* \"#utility.yul\":6680:6681   */\n      0x00\n        /* \"#utility.yul\":6673:6688   */\n      revert\n        /* \"#utility.yul\":6700:6841   */\n    tag_74:\n        /* \"#utility.yul\":6749:6753   */\n      0x00\n        /* \"#utility.yul\":6772:6775   */\n      dup2\n        /* \"#utility.yul\":6764:6775   */\n      swap1\n      pop\n        /* \"#utility.yul\":6795:6798   */\n      dup2\n        /* \"#utility.yul\":6792:6793   */\n      0x00\n        /* \"#utility.yul\":6785:6799   */\n      mstore\n        /* \"#utility.yul\":6829:6833   */\n      0x20\n        /* \"#utility.yul\":6826:6827   */\n      0x00\n        /* \"#utility.yul\":6816:6834   */\n      keccak256\n        /* \"#utility.yul\":6808:6834   */\n      swap1\n      pop\n        /* \"#utility.yul\":6700:6841   */\n      swap2\n      swap1\n      pop\n      jump\t// out\n        /* \"#utility.yul\":6847:6940   */\n    tag_75:\n        /* \"#utility.yul\":6884:6890   */\n      0x00\n        /* \"#utility.yul\":6931:6933   */\n      0x20\n        /* \"#utility.yul\":6926:6928   */\n      0x1f\n        /* \"#utility.yul\":6919:6924   */\n      dup4\n        /* \"#utility.yul\":6915:6929   */\n      add\n        /* \"#utility.yul\":6911:6934   */\n      div\n        /* \"#utility.yul\":6901:6934   */\n      swap1\n      pop\n        /* \"#utility.yul\":6847:6940   */\n      swap2\n      swap1\n      pop\n      jump\t// out\n        /* \"#utility.yul\":6946:7053   */\n    tag_76:\n        /* \"#utility.yul\":6990:6998   */\n      0x00\n        /* \"#utility.yul\":7040:7045   */\n      dup3\n        /* \"#utility.yul\":7034:7038   */\n      dup3\n        /* \"#utility.yul\":7030:7046   */\n      shl\n        /* \"#utility.yul\":7009:7046   */\n      swap1\n      pop\n        /* \"#utility.yul\":6946:7053   */\n      swap3\n      swap2\n      pop\n      pop\n      jump\t// out\n        /* \"#utility.yul\":7059:7452   */\n    tag_77:\n        /* \"#utility.yul\":7128:7134   */\n      0x00\n        /* \"#utility.yul\":7178:7179   */\n      0x08\n        /* \"#utility.yul\":7166:7176   */\n      dup4\n        /* \"#utility.yul\":7162:7180   */\n      mul\n        /* \"#utility.yul\":7201:7298   */\n      tag_172\n        /* \"#utility.yul\":7231:7297   */\n      0xffffffffffffffffffffffffffffffffffffffffffffffffffffffffffffffff\n        /* \"#utility.yul\":7220:7229   */\n      dup3\n        /* \"#utility.yul\":7201:7298   */\n      tag_76\n      jump\t// in\n    tag_172:\n        /* \"#utility.yul\":7319:7358   */\n      tag_173\n        /* \"#utility.yul\":7349:7357   */\n      dup7\n        /* \"#utility.yul\":7338:7347   */\n      dup4\n        /* \"#utility.yul\":7319:7358   */\n      tag_76\n      jump\t// in\n    tag_173:\n        /* \"#utility.yul\":7307:7358   */\n      swap6\n      pop\n        /* \"#utility.yul\":7391:7395   */\n      dup1\n        /* \"#utility.yul\":7387:7396   */\n      not\n        /* \"#utility.yul\":7380:7385   */\n      dup5\n        /* \"#utility.yul\":7376:7397   */\n      and\n        /* \"#utility.yul\":7367:7397   */\n      swap4\n      pop\n        /* \"#utility.yul\":7440:7444   */\n      dup1\n        /* \"#utility.yul\":7430:7438   */\n      dup7\n        /* \"#utility.yul\":7426:7445   */\n      and\n        /* \"#utility.yul\":7419:7424   */\n      dup5\n        /* \"#utility.yul\":7416:7446   */\n      or\n        /* \"#utility.yul\":7406:7446   */\n      swap3\n      pop\n        /* \"#utility.yul\":7135:7452   */\n      pop\n      pop\n        /* \"#utility.yul\":7059:7452   */\n      swap4\n      swap3\n      pop\n      pop\n      pop\n      jump\t// out\n        /* \"#utility.yul\":7458:7518   */\n    tag_78:\n        /* \"#utility.yul\":7486:7489   */\n      0x00\n        /* \"#utility.yul\":7507:7512   */\n      dup2\n        /* \"#utility.yul\":7500:7512   */\n      swap1\n      pop\n        /* \"#utility.yul\":7458:7518   */\n      swap2\n      swap1\n      pop\n      jump\t// out\n        /* \"#utility.yul\":7524:7666   */\n    tag_79:\n        /* \"#utility.yul\":7574:7583   */\n      0x00\n        /* \"#utility.yul\":7607:7660   */\n      tag_176\n        /* \"#utility.yul\":7625:7659   */\n      tag_177\n        /* \"#utility.yul\":7634:7658   */\n      tag_178\n        /* \"#utility.yul\":7652:7657   */\n      dup5\n        /* \"#utility.yul\":7634:7658   */\n      tag_64\n      jump\t// in\n    tag_178:\n        /* \"#utility.yul\":7625:7659   */\n      tag_78\n      jump\t// in\n    tag_177:\n        /* \"#utility.yul\":7607:7660   */\n      tag_64\n      jump\t// in\n    tag_176:\n        /* \"#utility.yul\":7594:7660   */\n      swap1\n      pop\n        /* \"#utility.yul\":7524:7666   */\n      swap2\n      swap1\n      pop\n      jump\t// out\n        /* \"#utility.yul\":7672:7747   */\n    tag_80:\n        /* \"#utility.yul\":7715:7718   */\n      0x00\n        /* \"#utility.yul\":7736:7741   */\n      dup2\n        /* \"#utility.yul\":7729:7741   */\n      swap1\n      pop\n        /* \"#utility.yul\":7672:7747   */\n      swap2\n      swap1\n      pop\n      jump\t// out\n        /* \"#utility.yul\":7753:8022   */\n    tag_81:\n        /* \"#utility.yul\":7863:7902   */\n      tag_181\n        /* \"#utility.yul\":7894:7901   */\n      dup4\n        /* \"#utility.yul\":7863:7902   */\n      tag_79\n      jump\t// in\n    tag_181:\n        /* \"#utility.yul\":7924:8015   */\n      tag_182\n        /* \"#utility.yul\":7973:8014   */\n      tag_183\n        /* \"#utility.yul\":7997:8013   */\n      dup3\n        /* \"#utility.yul\":7973:8014   */\n      tag_80\n      jump\t// in\n    tag_183:\n        /* \"#utility.yul\":7965:7971   */\n      dup5\n        /* \"#utility.yul\":7958:7962   */\n      dup5\n        /* \"#utility.yul\":7952:7963   */\n      sload\n        /* \"#utility.yul\":7924:8015   */\n      tag_77\n      jump\t// in\n    tag_182:\n        /* \"#utility.yul\":7918:7922   */\n      dup3\n        /* \"#utility.yul\":7911:8016   */\n      sstore\n        /* \"#utility.yul\":7829:8022   */\n      pop\n        /* \"#utility.yul\":7753:8022   */\n      pop\n      pop\n      pop\n      jump\t// out\n        /* \"#utility.yul\":8028:8101   */\n    tag_82:\n        /* \"#utility.yul\":8073:8076   */\n      0x00\n        /* \"#utility.yul\":8094:8095   */\n      0x00\n        /* \"#utility.yul\":8087:8095   */\n      swap1\n      pop\n        /* \"#utility.yul\":8028:8101   */\n      swap1\n      jump\t// out\n        /* \"#utility.yul\":8107:8296   */\n    tag_83:\n        /* \"#utility.yul\":8184:8216   */\n      tag_186\n      tag_82\n      jump\t// in\n    tag_186:\n        /* \"#utility.yul\":8225:8290   */\n      tag_187\n        /* \"#utility.yul\":8283:8289   */\n      dup2\n        /* \"#utility.yul\":8275:8281   */\n      dup5\n        /* \"#utility.yul\":8269:8273   */\n      dup5\n        /* \"#utility.yul\":8225:8290   */\n      tag_81\n      jump\t// in\n    tag_187:\n        /* \"#utility.yul\":8160:8296   */\n      pop\n        /* \"#utility.yul\":8107:8296   */\n      pop\n      pop\n      jump\t// out\n        /* \"#utility.yul\":8302:8488   */\n    tag_84:\n        /* \"#utility.yul\":8362:8482   */\n    tag_189:\n        /* \"#utility.yul\":8379:8382   */\n      dup2\n        /* \"#utility.yul\":8372:8377   */\n      dup2\n        /* \"#utility.yul\":8369:8383   */\n      lt\n        /* \"#utility.yul\":8362:8482   */\n      iszero\n      tag_191\n      jumpi\n        /* \"#utility.yul\":8433:8472   */\n      tag_192\n        /* \"#utility.yul\":8470:8471   */\n      0x00\n        /* \"#utility.yul\":8463:8468   */\n      dup3\n        /* \"#utility.yul\":8433:8472   */\n      tag_83\n      jump\t// in\n    tag_192:\n        /* \"#utility.yul\":8406:8407   */\n      0x01\n        /* \"#utility.yul\":8399:8404   */\n      dup2\n        /* \"#utility.yul\":8395:8408   */\n      add\n        /* \"#utility.yul\":8386:8408   */\n      swap1\n      pop\n        /* \"#utility.yul\":8362:8482   */\n      jump(tag_189)\n    tag_191:\n        /* \"#utility.yul\":8302:8488   */\n      pop\n      pop\n      jump\t// out\n        /* \"#utility.yul\":8494:9037   */\n    tag_85:\n        /* \"#utility.yul\":8595:8597   */\n      0x1f\n        /* \"#utility.yul\":8590:8593   */\n      dup3\n        /* \"#utility.yul\":8587:8598   */\n      gt\n        /* \"#utility.yul\":8584:9030   */\n      iszero\n      tag_194\n      jumpi\n        /* \"#utility.yul\":8629:8667   */\n      tag_195\n        /* \"#utility.yul\":8661:8666   */\n      dup2\n        /* \"#utility.yul\":8629:8667   */\n      tag_74\n      jump\t// in\n    tag_195:\n        /* \"#utility.yul\":8713:8742   */\n      tag_196\n        /* \"#utility.yul\":8731:8741   */\n      dup5\n        /* \"#utility.yul\":8713:8742   */\n      tag_75\n      jump\t// in\n    tag_196:\n        /* \"#utility.yul\":8703:8711   */\n      dup2\n        /* \"#utility.yul\":8699:8743   */\n      add\n        /* \"#utility.yul\":8896:8898   */\n      0x20\n        /* \"#utility.yul\":8884:8894   */\n      dup6\n        /* \"#utility.yul\":8881:8899   */\n      lt\n        /* \"#utility.yul\":8878:8927   */\n      iszero\n      tag_197\n      jumpi\n        /* \"#utility.yul\":8917:8925   */\n      dup2\n        /* \"#utility.yul\":8902:8925   */\n      swap1\n      pop\n        /* \"#utility.yul\":8878:8927   */\n    tag_197:\n        /* \"#utility.yul\":8940:9020   */\n      tag_198\n        /* \"#utility.yul\":8996:9018   */\n      tag_199\n        /* \"#utility.yul\":9014:9017   */\n      dup6\n        /* \"#utility.yul\":8996:9018   */\n      tag_75\n      jump\t// in\n    tag_199:\n        /* \"#utility.yul\":8986:8994   */\n      dup4\n        /* \"#utility.yul\":8982:9019   */\n      add\n        /* \"#utility.yul\":8969:8980   */\n      dup3\n        /* \"#utility.yul\":8940:9020   */\n      tag_84\n      jump\t// in\n    tag_198:\n        /* \"#utility.yul\":8599:9030   */\n      pop\n      pop\n        /* \"#utility.yul\":8584:9030   */\n    tag_194:\n        /* \"#utility.yul\":8494:9037   */\n      pop\n      pop\n      pop\n      jump\t// out\n        /* \"#utility.yul\":9043:9160   */\n    tag_86:\n        /* \"#utility.yul\":9097:9105   */\n      0x00\n        /* \"#utility.yul\":9147:9152   */\n      dup3\n        /* \"#utility.yul\":9141:9145   */\n      dup3\n        /* \"#utility.yul\":9137:9153   */\n      shr\n        /* \"#utility.yul\":9116:9153   */\n      swap1\n      pop\n        /* \"#utility.yul\":9043:9160   */\n      swap3\n      swap2\n      pop\n      pop\n      jump\t// out\n        /* \"#utility.yul\":9166:9335   */\n    tag_87:\n        /* \"#utility.yul\":9210:9216   */\n      0x00\n        /* \"#utility.yul\":9243:9294   */\n      tag_202\n        /* \"#utility.yul\":9291:9292   */\n      0x00\n        /* \"#utility.yul\":9287:9293   */\n      not\n        /* \"#utility.yul\":9279:9284   */\n      dup5\n        /* \"#utility.yul\":9276:9277   */\n      0x08\n        /* \"#utility.yul\":9272:9285   */\n      mul\n        /* \"#utility.yul\":9243:9294   */\n      tag_86\n      jump\t// in\n    tag_202:\n        /* \"#utility.yul\":9239:9295   */\n      not\n        /* \"#utility.yul\":9324:9328   */\n      dup1\n        /* \"#utility.yul\":9318:9322   */\n      dup4\n        /* \"#utility.yul\":9314:9329   */\n      and\n        /* \"#utility.yul\":9304:9329   */\n      swap2\n      pop\n        /* \"#utility.yul\":9217:9335   */\n      pop\n        /* \"#utility.yul\":9166:9335   */\n      swap3\n      swap2\n      pop\n      pop\n      jump\t// out\n        /* \"#utility.yul\":9340:9635   */\n    tag_88:\n        /* \"#utility.yul\":9416:9420   */\n      0x00\n        /* \"#utility.yul\":9562:9591   */\n      tag_204\n        /* \"#utility.yul\":9587:9590   */\n      dup4\n        /* \"#utility.yul\":9581:9585   */\n      dup4\n        /* \"#utility.yul\":9562:9591   */\n      tag_87\n      jump\t// in\n    tag_204:\n        /* \"#utility.yul\":9554:9591   */\n      swap2\n      pop\n        /* \"#utility.yul\":9624:9627   */\n      dup3\n        /* \"#utility.yul\":9621:9622   */\n      0x02\n        /* \"#utility.yul\":9617:9628   */\n      mul\n        /* \"#utility.yul\":9611:9615   */\n      dup3\n        /* \"#utility.yul\":9608:9629   */\n      or\n        /* \"#utility.yul\":9600:9629   */\n      swap1\n      pop\n        /* \"#utility.yul\":9340:9635   */\n      swap3\n      swap2\n      pop\n      pop\n      jump\t// out\n        /* \"#utility.yul\":9640:11035   */\n    tag_38:\n        /* \"#utility.yul\":9757:9794   */\n      tag_206\n        /* \"#utility.yul\":9790:9793   */\n      dup3\n        /* \"#utility.yul\":9757:9794   */\n      tag_46\n      jump\t// in\n    tag_206:\n        /* \"#utility.yul\":9859:9877   */\n      0xffffffffffffffff\n        /* \"#utility.yul\":9851:9857   */\n      dup2\n        /* \"#utility.yul\":9848:9878   */\n      gt\n        /* \"#utility.yul\":9845:9901   */\n      iszero\n      tag_207\n      jumpi\n        /* \"#utility.yul\":9881:9899   */\n      tag_208\n      tag_56\n      jump\t// in\n    tag_208:\n        /* \"#utility.yul\":9845:9901   */\n    tag_207:\n        /* \"#utility.yul\":9925:9963   */\n      tag_209\n        /* \"#utility.yul\":9957:9961   */\n      dup3\n        /* \"#utility.yul\":9951:9962   */\n      sload\n        /* \"#utility.yul\":9925:9963   */\n      tag_18\n      jump\t// in\n    tag_209:\n        /* \"#utility.yul\":10010:10077   */\n      tag_210\n        /* \"#utility.yul\":10070:10076   */\n      dup3\n        /* \"#utility.yul\":10062:10068   */\n      dup3\n        /* \"#utility.yul\":10056:10060   */\n      dup6\n        /* \"#utility.yul\":10010:10077   */\n      tag_85\n      jump\t// in\n    tag_210:\n        /* \"#utility.yul\":10104:10105   */\n      0x00\n        /* \"#utility.yul\":10128:10132   */\n      0x20\n        /* \"#utility.yul\":10115:10132   */\n      swap1\n      pop\n        /* \"#utility.yul\":10160:10162   */\n      0x1f\n        /* \"#utility.yul\":10152:10158   */\n      dup4\n        /* \"#utility.yul\":10149:10163   */\n      gt\n        /* \"#utility.yul\":10177:10178   */\n      0x01\n        /* \"#utility.yul\":10172:10790   */\n      dup2\n      eq\n      tag_212\n      jumpi\n        /* \"#utility.yul\":10834:10835   */\n      0x00\n        /* \"#utility.yul\":10851:10857   */\n      dup5\n        /* \"#utility.yul\":10848:10925   */\n      iszero\n      tag_213\n      jumpi\n        /* \"#utility.yul\":10900:10909   */\n      dup3\n        /* \"#utility.yul\":10895:10898   */\n      dup8\n        /* \"#utility.yul\":10891:10910   */\n      add\n        /* \"#utility.yul\":10885:10911   */\n      mload\n        /* \"#utility.yul\":10876:10911   */\n      swap1\n      pop\n        /* \"#utility.yul\":10848:10925   */\n    tag_213:\n        /* \"#utility.yul\":10951:11018   */\n      tag_214\n        /* \"#utility.yul\":11011:11017   */\n      dup6\n        /* \"#utility.yul\":11004:11009   */\n      dup3\n        /* \"#utility.yul\":10951:11018   */\n      tag_88\n      jump\t// in\n    tag_214:\n        /* \"#utility.yul\":10945:10949   */\n      dup7\n        /* \"#utility.yul\":10938:11019   */\n      sstore\n        /* \"#utility.yul\":10807:11029   */\n      pop\n        /* \"#utility.yul\":10142:11029   */\n      jump(tag_211)\n        /* \"#utility.yul\":10172:10790   */\n    tag_212:\n        /* \"#utility.yul\":10224:10228   */\n      0x1f\n        /* \"#utility.yul\":10220:10229   */\n      not\n        /* \"#utility.yul\":10212:10218   */\n      dup5\n        /* \"#utility.yul\":10208:10230   */\n      and\n        /* \"#utility.yul\":10258:10295   */\n      tag_215\n        /* \"#utility.yul\":10290:10294   */\n      dup7\n        /* \"#utility.yul\":10258:10295   */\n      tag_74\n      jump\t// in\n    tag_215:\n        /* \"#utility.yul\":10317:10318   */\n      0x00\n        /* \"#utility.yul\":10331:10539   */\n    tag_216:\n        /* \"#utility.yul\":10345:10352   */\n      dup3\n        /* \"#utility.yul\":10342:10343   */\n      dup2\n        /* \"#utility.yul\":10339:10353   */\n      lt\n        /* \"#utility.yul\":10331:10539   */\n      iszero\n      tag_218\n      jumpi\n        /* \"#utility.yul\":10424:10433   */\n      dup5\n        /* \"#utility.yul\":10419:10422   */\n      dup10\n        /* \"#utility.yul\":10415:10434   */\n      add\n        /* \"#utility.yul\":10409:10435   */\n      mload\n        /* \"#utility.yul\":10401:10407   */\n      dup3\n        /* \"#utility.yul\":10394:10436   */\n      sstore\n        /* \"#utility.yul\":10475:10476   */\n      0x01\n        /* \"#utility.yul\":10467:10473   */\n      dup3\n        /* \"#utility.yul\":10463:10477   */\n      add\n        /* \"#utility.yul\":10453:10477   */\n      swap2\n      pop\n        /* \"#utility.yul\":10522:10524   */\n      0x20\n        /* \"#utility.yul\":10511:10520   */\n      dup6\n        /* \"#utility.yul\":10507:10525   */\n      add\n        /* \"#utility.yul\":10494:10525   */\n      swap5\n      pop\n        /* \"#utility.yul\":10368:10372   */\n      0x20\n        /* \"#utility.yul\":10365:10366   */\n      dup2\n        /* \"#utility.yul\":10361:10373   */\n      add\n        /* \"#utility.yul\":10356:10373   */\n      swap1\n      pop\n        /* \"#utility.yul\":10331:10539   */\n      jump(tag_216)\n    tag_218:\n        /* \"#utility.yul\":10567:10573   */\n      dup7\n        /* \"#utility.yul\":10558:10565   */\n      dup4\n        /* \"#utility.yul\":10555:10574   */\n      lt\n        /* \"#utility.yul\":10552:10731   */\n      iszero\n      tag_219\n      jumpi\n        /* \"#utility.yul\":10625:10634   */\n      dup5\n        /* \"#utility.yul\":10620:10623   */\n      dup10\n        /* \"#utility.yul\":10616:10635   */\n      add\n        /* \"#utility.yul\":10610:10636   */\n      mload\n        /* \"#utility.yul\":10668:10716   */\n      tag_220\n        /* \"#utility.yul\":10710:10714   */\n      0x1f\n        /* \"#utility.yul\":10702:10708   */\n      dup10\n        /* \"#utility.yul\":10698:10715   */\n      and\n        /* \"#utility.yul\":10687:10696   */\n      dup3\n        /* \"#utility.yul\":10668:10716   */\n      tag_87\n      jump\t// in\n    tag_220:\n        /* \"#utility.yul\":10660:10666   */\n      dup4\n        /* \"#utility.yul\":10653:10717   */\n      sstore\n        /* \"#utility.yul\":10575:10731   */\n      pop\n        /* \"#utility.yul\":10552:10731   */\n    tag_219:\n        /* \"#utility.yul\":10777:10778   */\n      0x01\n        /* \"#utility.yul\":10773:10774   */\n      0x02\n        /* \"#utility.yul\":10765:10771   */\n      dup9\n        /* \"#utility.yul\":10761:10775   */\n      mul\n        /* \"#utility.yul\":10757:10779   */\n      add\n        /* \"#utility.yul\":10751:10755   */\n      dup9\n        /* \"#utility.yul\":10744:10780   */\n      sstore\n        /* \"#utility.yul\":10179:10790   */\n      pop\n      pop\n      pop\n        /* \"#utility.yul\":10142:11029   */\n    tag_211:\n      pop\n        /* \"#utility.yul\":9732:11035   */\n      pop\n      pop\n      pop\n        /* \"#utility.yul\":9640:11035   */\n      pop\n      pop\n      jump\t// out\n        /* \"#utility.yul\":11041:11221   */\n    tag_89:\n        /* \"#utility.yul\":11181:11213   */\n      0x456c2073616c75646f206e6f20707565646520657374617220766163696f0000\n        /* \"#utility.yul\":11177:11178   */\n      0x00\n        /* \"#utility.yul\":11169:11175   */\n      dup3\n        /* \"#utility.yul\":11165:11179   */\n      add\n        /* \"#utility.yul\":11158:11214   */\n      mstore\n        /* \"#utility.yul\":11041:11221   */\n      pop\n      jump\t// out\n        /* \"#utility.yul\":11227:11593   */\n    tag_90:\n        /* \"#utility.yul\":11369:11372   */\n      0x00\n        /* \"#utility.yul\":11390:11457   */\n      tag_223\n        /* \"#utility.yul\":11454:11456   */\n      0x1e\n        /* \"#utility.yul\":11449:11452   */\n      dup4\n        /* \"#utility.yul\":11390:11457   */\n      tag_47\n      jump\t// in\n    tag_223:\n        /* \"#utility.yul\":11383:11457   */\n      swap2\n      pop\n        /* \"#utility.yul\":11466:11559   */\n      tag_224\n        /* \"#utility.yul\":11555:11558   */\n      dup3\n        /* \"#utility.yul\":11466:11559   */\n      tag_89\n      jump\t// in\n    tag_224:\n        /* \"#utility.yul\":11584:11586   */\n      0x20\n        /* \"#utility.yul\":11579:11582   */\n      dup3\n        /* \"#utility.yul\":11575:11587   */\n      add\n        /* \"#utility.yul\":11568:11587   */\n      swap1\n      pop\n        /* \"#utility.yul\":11227:11593   */\n      swap2\n      swap1\n      pop\n      jump\t// out\n        /* \"#utility.yul\":11599:12018   */\n    tag_43:\n        /* \"#utility.yul\":11765:11769   */\n      0x00\n        /* \"#utility.yul\":11803:11805   */\n      0x20\n        /* \"#utility.yul\":11792:11801   */\n      dup3\n        /* \"#utility.yul\":11788:11806   */\n      add\n        /* \"#utility.yul\":11780:11806   */\n      swap1\n      pop\n        /* \"#utility.yul\":11852:11861   */\n      dup2\n        /* \"#utility.yul\":11846:11850   */\n      dup2\n        /* \"#utility.yul\":11842:11862   */\n      sub\n        /* \"#utility.yul\":11838:11839   */\n      0x00\n        /* \"#utility.yul\":11827:11836   */\n      dup4\n        /* \"#utility.yul\":11823:11840   */\n      add\n        /* \"#utility.yul\":11816:11863   */\n      mstore\n        /* \"#utility.yul\":11880:12011   */\n      tag_226\n        /* \"#utility.yul\":12006:12010   */\n      dup2\n        /* \"#utility.yul\":11880:12011   */\n      tag_90\n      jump\t// in\n    tag_226:\n        /* \"#utility.yul\":11872:12011   */\n      swap1\n      pop\n        /* \"#utility.yul\":11599:12018   */\n      swap2\n      swap1\n      pop\n      jump\t// out\n\n    auxdata: 0xa26469706673582212203e0e3b9e578b70d28cf028f6c1d6e2ebc2aa317181bdec8b3d2f6cff4154533964736f6c634300081e0033\n}\n",
				"bytecode": {
					"linkReferences": {},
					"object": "608060405260405180606001604052806040518060400160405280601981526020017f536f6d6f7320706f6c766f2064652065737472656c6c617321000000000000008152508152602001604051806060016040528060218152602001610fd6602191398152602001604051806060016040528060228152602001610fb46022913981525060019060036100949291906100d7565b503480156100a0575f5ffd5b50604051610ff7380380610ff783398181016040528101906100c291906102eb565b805f90816100d09190610542565b5050610611565b8260038101928215610112579160200282015b828111156101115782518290816101019190610542565b50916020019190600101906100ea565b5b50905061011f9190610123565b5090565b5b80821115610142575f81816101399190610146565b50600101610124565b5090565b50805461015290610369565b5f825580601f106101635750610180565b601f0160209004905f5260205f209081019061017f9190610183565b5b50565b5b8082111561019a575f815f905550600101610184565b5090565b5f604051905090565b5f5ffd5b5f5ffd5b5f5ffd5b5f5ffd5b5f601f19601f8301169050919050565b7f4e487b71000000000000000000000000000000000000000000000000000000005f52604160045260245ffd5b6101fd826101b7565b810181811067ffffffffffffffff8211171561021c5761021b6101c7565b5b80604052505050565b5f61022e61019e565b905061023a82826101f4565b919050565b5f67ffffffffffffffff821115610259576102586101c7565b5b610262826101b7565b9050602081019050919050565b8281835e5f83830152505050565b5f61028f61028a8461023f565b610225565b9050828152602081018484840111156102ab576102aa6101b3565b5b6102b684828561026f565b509392505050565b5f82601f8301126102d2576102d16101af565b5b81516102e284826020860161027d565b91505092915050565b5f60208284031215610300576102ff6101a7565b5b5f82015167ffffffffffffffff81111561031d5761031c6101ab565b5b610329848285016102be565b91505092915050565b5f81519050919050565b7f4e487b71000000000000000000000000000000000000000000000000000000005f52602260045260245ffd5b5f600282049050600182168061038057607f821691505b6020821081036103935761039261033c565b5b50919050565b5f819050815f5260205f209050919050565b5f6020601f8301049050919050565b5f82821b905092915050565b5f600883026103f57fffffffffffffffffffffffffffffffffffffffffffffffffffffffffffffffff826103ba565b6103ff86836103ba565b95508019841693508086168417925050509392505050565b5f819050919050565b5f819050919050565b5f61044361043e61043984610417565b610420565b610417565b9050919050565b5f819050919050565b61045c83610429565b6104706104688261044a565b8484546103c6565b825550505050565b5f5f905090565b610487610478565b610492818484610453565b505050565b5b818110156104b5576104aa5f8261047f565b600181019050610498565b5050565b601f8211156104fa576104cb81610399565b6104d4846103ab565b810160208510156104e3578190505b6104f76104ef856103ab565b830182610497565b50505b505050565b5f82821c905092915050565b5f61051a5f19846008026104ff565b1980831691505092915050565b5f610532838361050b565b9150826002028217905092915050565b61054b82610332565b67ffffffffffffffff811115610564576105636101c7565b5b61056e8254610369565b6105798282856104b9565b5f60209050601f8311600181146105aa575f8415610598578287015190505b6105a28582610527565b865550610609565b601f1984166105b886610399565b5f5b828110156105df578489015182556001820191506020850194506020810190506105ba565b868310156105fc57848901516105f8601f89168261050b565b8355505b6001600288020188555050505b505050505050565b6109968061061e5f395ff3fe608060405234801561000f575f5ffd5b506004361061003f575f3560e01c8063b703ec5914610043578063d092739514610061578063db0702611461006b575b5f5ffd5b61004b610087565b6040516100589190610335565b60405180910390f35b610069610116565b005b61008560048036038101906100809190610492565b610239565b005b60605f805461009590610506565b80601f01602080910402602001604051908101604052809291908181526020018280546100c190610506565b801561010c5780601f106100e35761010080835404028352916020019161010c565b820191905f5260205f20905b8154815290600101906020018083116100ef57829003601f168201915b5050505050905090565b5f6003423360405160200161012c9291906105d4565b604051602081830303815290604052805190602001205f1c61014e919061062c565b90505f600182600381106101655761016461065c565b5b01805461017190610506565b80601f016020809104026020016040519081016040528092919081815260200182805461019d90610506565b80156101e85780601f106101bf576101008083540402835291602001916101e8565b820191905f5260205f20905b8154815290600101906020018083116101cb57829003601f168201915b50505050509050805f90816101fd9190610829565b507f575fc9a8feaf6083d0faa38901ff3a6bb92fee1d07747197fd88d86066c507ba8160405161022d9190610335565b60405180910390a15050565b5f81511161027c576040517f08c379a000000000000000000000000000000000000000000000000000000000815260040161027390610942565b60405180910390fd5b805f908161028a9190610829565b507f575fc9a8feaf6083d0faa38901ff3a6bb92fee1d07747197fd88d86066c507ba816040516102ba9190610335565b60405180910390a150565b5f81519050919050565b5f82825260208201905092915050565b8281835e5f83830152505050565b5f601f19601f8301169050919050565b5f610307826102c5565b61031181856102cf565b93506103218185602086016102df565b61032a816102ed565b840191505092915050565b5f6020820190508181035f83015261034d81846102fd565b905092915050565b5f604051905090565b5f5ffd5b5f5ffd5b5f5ffd5b5f5ffd5b7f4e487b71000000000000000000000000000000000000000000000000000000005f52604160045260245ffd5b6103a4826102ed565b810181811067ffffffffffffffff821117156103c3576103c261036e565b5b80604052505050565b5f6103d5610355565b90506103e1828261039b565b919050565b5f67ffffffffffffffff821115610400576103ff61036e565b5b610409826102ed565b9050602081019050919050565b828183375f83830152505050565b5f610436610431846103e6565b6103cc565b9050828152602081018484840111156104525761045161036a565b5b61045d848285610416565b509392505050565b5f82601f83011261047957610478610366565b5b8135610489848260208601610424565b91505092915050565b5f602082840312156104a7576104a661035e565b5b5f82013567ffffffffffffffff8111156104c4576104c3610362565b5b6104d084828501610465565b91505092915050565b7f4e487b71000000000000000000000000000000000000000000000000000000005f52602260045260245ffd5b5f600282049050600182168061051d57607f821691505b6020821081036105305761052f6104d9565b5b50919050565b5f819050919050565b5f819050919050565b61055961055482610536565b61053f565b82525050565b5f73ffffffffffffffffffffffffffffffffffffffff82169050919050565b5f6105888261055f565b9050919050565b5f8160601b9050919050565b5f6105a58261058f565b9050919050565b5f6105b68261059b565b9050919050565b6105ce6105c98261057e565b6105ac565b82525050565b5f6105df8285610548565b6020820191506105ef82846105bd565b6014820191508190509392505050565b7f4e487b71000000000000000000000000000000000000000000000000000000005f52601260045260245ffd5b5f61063682610536565b915061064183610536565b925082610651576106506105ff565b5b828206905092915050565b7f4e487b71000000000000000000000000000000000000000000000000000000005f52603260045260245ffd5b5f819050815f5260205f209050919050565b5f6020601f8301049050919050565b5f82821b905092915050565b5f600883026106e57fffffffffffffffffffffffffffffffffffffffffffffffffffffffffffffffff826106aa565b6106ef86836106aa565b95508019841693508086168417925050509392505050565b5f819050919050565b5f61072a61072561072084610536565b610707565b610536565b9050919050565b5f819050919050565b61074383610710565b61075761074f82610731565b8484546106b6565b825550505050565b5f5f905090565b61076e61075f565b61077981848461073a565b505050565b5b8181101561079c576107915f82610766565b60018101905061077f565b5050565b601f8211156107e1576107b281610689565b6107bb8461069b565b810160208510156107ca578190505b6107de6107d68561069b565b83018261077e565b50505b505050565b5f82821c905092915050565b5f6108015f19846008026107e6565b1980831691505092915050565b5f61081983836107f2565b9150826002028217905092915050565b610832826102c5565b67ffffffffffffffff81111561084b5761084a61036e565b5b6108558254610506565b6108608282856107a0565b5f60209050601f831160018114610891575f841561087f578287015190505b610889858261080e565b8655506108f0565b601f19841661089f86610689565b5f5b828110156108c6578489015182556001820191506020850194506020810190506108a1565b868310156108e357848901516108df601f8916826107f2565b8355505b6001600288020188555050505b505050505050565b7f456c2073616c75646f206e6f20707565646520657374617220766163696f00005f82015250565b5f61092c601e836102cf565b9150610937826108f8565b602082019050919050565b5f6020820190508181035f83015261095981610920565b905091905056fea26469706673582212203e0e3b9e578b70d28cf028f6c1d6e2ebc2aa317181bdec8b3d2f6cff4154533964736f6c634300081e003344616e69656c6120262047726f6b20646f6d696e616e206c612067616c6178696121456c20756e69766572736f206e6f732073616c756461206465207675656c746121",
					"opcodes": "PUSH1 0x80 PUSH1 0x40 MSTORE PUSH1 0x40 MLOAD DUP1 PUSH1 0x60 ADD PUSH1 0x40 MSTORE DUP1 PUSH1 0x40 MLOAD DUP1 PUSH1 0x40 ADD PUSH1 0x40 MSTORE DUP1 PUSH1 0x19 DUP2 MSTORE PUSH1 0x20 ADD PUSH32 0x536F6D6F7320706F6C766F2064652065737472656C6C61732100000000000000 DUP2 MSTORE POP DUP2 MSTORE PUSH1 0x20 ADD PUSH1 0x40 MLOAD DUP1 PUSH1 0x60 ADD PUSH1 0x40 MSTORE DUP1 PUSH1 0x21 DUP2 MSTORE PUSH1 0x20 ADD PUSH2 0xFD6 PUSH1 0x21 SWAP2 CODECOPY DUP2 MSTORE PUSH1 0x20 ADD PUSH1 0x40 MLOAD DUP1 PUSH1 0x60 ADD PUSH1 0x40 MSTORE DUP1 PUSH1 0x22 DUP2 MSTORE PUSH1 0x20 ADD PUSH2 0xFB4 PUSH1 0x22 SWAP2 CODECOPY DUP2 MSTORE POP PUSH1 0x1 SWAP1 PUSH1 0x3 PUSH2 0x94 SWAP3 SWAP2 SWAP1 PUSH2 0xD7 JUMP JUMPDEST POP CALLVALUE DUP1 ISZERO PUSH2 0xA0 JUMPI PUSH0 PUSH0 REVERT JUMPDEST POP PUSH1 0x40 MLOAD PUSH2 0xFF7 CODESIZE SUB DUP1 PUSH2 0xFF7 DUP4 CODECOPY DUP2 DUP2 ADD PUSH1 0x40 MSTORE DUP2 ADD SWAP1 PUSH2 0xC2 SWAP2 SWAP1 PUSH2 0x2EB JUMP JUMPDEST DUP1 PUSH0 SWAP1 DUP2 PUSH2 0xD0 SWAP2 SWAP1 PUSH2 0x542 JUMP JUMPDEST POP POP PUSH2 0x611 JUMP JUMPDEST DUP3 PUSH1 0x3 DUP2 ADD SWAP3 DUP3 ISZERO PUSH2 0x112 JUMPI SWAP2 PUSH1 0x20 MUL DUP3 ADD JUMPDEST DUP3 DUP2 GT ISZERO PUSH2 0x111 JUMPI DUP3 MLOAD DUP3 SWAP1 DUP2 PUSH2 0x101 SWAP2 SWAP1 PUSH2 0x542 JUMP JUMPDEST POP SWAP2 PUSH1 0x20 ADD SWAP2 SWAP1 PUSH1 0x1 ADD SWAP1 PUSH2 0xEA JUMP JUMPDEST JUMPDEST POP SWAP1 POP PUSH2 0x11F SWAP2 SWAP1 PUSH2 0x123 JUMP JUMPDEST POP SWAP1 JUMP JUMPDEST JUMPDEST DUP1 DUP3 GT ISZERO PUSH2 0x142 JUMPI PUSH0 DUP2 DUP2 PUSH2 0x139 SWAP2 SWAP1 PUSH2 0x146 JUMP JUMPDEST POP PUSH1 0x1 ADD PUSH2 0x124 JUMP JUMPDEST POP SWAP1 JUMP JUMPDEST POP DUP1 SLOAD PUSH2 0x152 SWAP1 PUSH2 0x369 JUMP JUMPDEST PUSH0 DUP3 SSTORE DUP1 PUSH1 0x1F LT PUSH2 0x163 JUMPI POP PUSH2 0x180 JUMP JUMPDEST PUSH1 0x1F ADD PUSH1 0x20 SWAP1 DIV SWAP1 PUSH0 MSTORE PUSH1 0x20 PUSH0 KECCAK256 SWAP1 DUP2 ADD SWAP1 PUSH2 0x17F SWAP2 SWAP1 PUSH2 0x183 JUMP JUMPDEST JUMPDEST POP JUMP JUMPDEST JUMPDEST DUP1 DUP3 GT ISZERO PUSH2 0x19A JUMPI PUSH0 DUP2 PUSH0 SWAP1 SSTORE POP PUSH1 0x1 ADD PUSH2 0x184 JUMP JUMPDEST POP SWAP1 JUMP JUMPDEST PUSH0 PUSH1 0x40 MLOAD SWAP1 POP SWAP1 JUMP JUMPDEST PUSH0 PUSH0 REVERT JUMPDEST PUSH0 PUSH0 REVERT JUMPDEST PUSH0 PUSH0 REVERT JUMPDEST PUSH0 PUSH0 REVERT JUMPDEST PUSH0 PUSH1 0x1F NOT PUSH1 0x1F DUP4 ADD AND SWAP1 POP SWAP2 SWAP1 POP JUMP JUMPDEST PUSH32 0x4E487B7100000000000000000000000000000000000000000000000000000000 PUSH0 MSTORE PUSH1 0x41 PUSH1 0x4 MSTORE PUSH1 0x24 PUSH0 REVERT JUMPDEST PUSH2 0x1FD DUP3 PUSH2 0x1B7 JUMP JUMPDEST DUP2 ADD DUP2 DUP2 LT PUSH8 0xFFFFFFFFFFFFFFFF DUP3 GT OR ISZERO PUSH2 0x21C JUMPI PUSH2 0x21B PUSH2 0x1C7 JUMP JUMPDEST JUMPDEST DUP1 PUSH1 0x40 MSTORE POP POP POP JUMP JUMPDEST PUSH0 PUSH2 0x22E PUSH2 0x19E JUMP JUMPDEST SWAP1 POP PUSH2 0x23A DUP3 DUP3 PUSH2 0x1F4 JUMP JUMPDEST SWAP2 SWAP1 POP JUMP JUMPDEST PUSH0 PUSH8 0xFFFFFFFFFFFFFFFF DUP3 GT ISZERO PUSH2 0x259 JUMPI PUSH2 0x258 PUSH2 0x1C7 JUMP JUMPDEST JUMPDEST PUSH2 0x262 DUP3 PUSH2 0x1B7 JUMP JUMPDEST SWAP1 POP PUSH1 0x20 DUP2 ADD SWAP1 POP SWAP2 SWAP1 POP JUMP JUMPDEST DUP3 DUP2 DUP4 MCOPY PUSH0 DUP4 DUP4 ADD MSTORE POP POP POP JUMP JUMPDEST PUSH0 PUSH2 0x28F PUSH2 0x28A DUP5 PUSH2 0x23F JUMP JUMPDEST PUSH2 0x225 JUMP JUMPDEST SWAP1 POP DUP3 DUP2 MSTORE PUSH1 0x20 DUP2 ADD DUP5 DUP5 DUP5 ADD GT ISZERO PUSH2 0x2AB JUMPI PUSH2 0x2AA PUSH2 0x1B3 JUMP JUMPDEST JUMPDEST PUSH2 0x2B6 DUP5 DUP3 DUP6 PUSH2 0x26F JUMP JUMPDEST POP SWAP4 SWAP3 POP POP POP JUMP JUMPDEST PUSH0 DUP3 PUSH1 0x1F DUP4 ADD SLT PUSH2 0x2D2 JUMPI PUSH2 0x2D1 PUSH2 0x1AF JUMP JUMPDEST JUMPDEST DUP2 MLOAD PUSH2 0x2E2 DUP5 DUP3 PUSH1 0x20 DUP7 ADD PUSH2 0x27D JUMP JUMPDEST SWAP2 POP POP SWAP3 SWAP2 POP POP JUMP JUMPDEST PUSH0 PUSH1 0x20 DUP3 DUP5 SUB SLT ISZERO PUSH2 0x300 JUMPI PUSH2 0x2FF PUSH2 0x1A7 JUMP JUMPDEST JUMPDEST PUSH0 DUP3 ADD MLOAD PUSH8 0xFFFFFFFFFFFFFFFF DUP2 GT ISZERO PUSH2 0x31D JUMPI PUSH2 0x31C PUSH2 0x1AB JUMP JUMPDEST JUMPDEST PUSH2 0x329 DUP5 DUP3 DUP6 ADD PUSH2 0x2BE JUMP JUMPDEST SWAP2 POP POP SWAP3 SWAP2 POP POP JUMP JUMPDEST PUSH0 DUP2 MLOAD SWAP1 POP SWAP2 SWAP1 POP JUMP JUMPDEST PUSH32 0x4E487B7100000000000000000000000000000000000000000000000000000000 PUSH0 MSTORE PUSH1 0x22 PUSH1 0x4 MSTORE PUSH1 0x24 PUSH0 REVERT JUMPDEST PUSH0 PUSH1 0x2 DUP3 DIV SWAP1 POP PUSH1 0x1 DUP3 AND DUP1 PUSH2 0x380 JUMPI PUSH1 0x7F DUP3 AND SWAP2 POP JUMPDEST PUSH1 0x20 DUP3 LT DUP2 SUB PUSH2 0x393 JUMPI PUSH2 0x392 PUSH2 0x33C JUMP JUMPDEST JUMPDEST POP SWAP2 SWAP1 POP JUMP JUMPDEST PUSH0 DUP2 SWAP1 POP DUP2 PUSH0 MSTORE PUSH1 0x20 PUSH0 KECCAK256 SWAP1 POP SWAP2 SWAP1 POP JUMP JUMPDEST PUSH0 PUSH1 0x20 PUSH1 0x1F DUP4 ADD DIV SWAP1 POP SWAP2 SWAP1 POP JUMP JUMPDEST PUSH0 DUP3 DUP3 SHL SWAP1 POP SWAP3 SWAP2 POP POP JUMP JUMPDEST PUSH0 PUSH1 0x8 DUP4 MUL PUSH2 0x3F5 PUSH32 0xFFFFFFFFFFFFFFFFFFFFFFFFFFFFFFFFFFFFFFFFFFFFFFFFFFFFFFFFFFFFFFFF DUP3 PUSH2 0x3BA JUMP JUMPDEST PUSH2 0x3FF DUP7 DUP4 PUSH2 0x3BA JUMP JUMPDEST SWAP6 POP DUP1 NOT DUP5 AND SWAP4 POP DUP1 DUP7 AND DUP5 OR SWAP3 POP POP POP SWAP4 SWAP3 POP POP POP JUMP JUMPDEST PUSH0 DUP2 SWAP1 POP SWAP2 SWAP1 POP JUMP JUMPDEST PUSH0 DUP2 SWAP1 POP SWAP2 SWAP1 POP JUMP JUMPDEST PUSH0 PUSH2 0x443 PUSH2 0x43E PUSH2 0x439 DUP5 PUSH2 0x417 JUMP JUMPDEST PUSH2 0x420 JUMP JUMPDEST PUSH2 0x417 JUMP JUMPDEST SWAP1 POP SWAP2 SWAP1 POP JUMP JUMPDEST PUSH0 DUP2 SWAP1 POP SWAP2 SWAP1 POP JUMP JUMPDEST PUSH2 0x45C DUP4 PUSH2 0x429 JUMP JUMPDEST PUSH2 0x470 PUSH2 0x468 DUP3 PUSH2 0x44A JUMP JUMPDEST DUP5 DUP5 SLOAD PUSH2 0x3C6 JUMP JUMPDEST DUP3 SSTORE POP POP POP POP JUMP JUMPDEST PUSH0 PUSH0 SWAP1 POP SWAP1 JUMP JUMPDEST PUSH2 0x487 PUSH2 0x478 JUMP JUMPDEST PUSH2 0x492 DUP2 DUP5 DUP5 PUSH2 0x453 JUMP JUMPDEST POP POP POP JUMP JUMPDEST JUMPDEST DUP2 DUP2 LT ISZERO PUSH2 0x4B5 JUMPI PUSH2 0x4AA PUSH0 DUP3 PUSH2 0x47F JUMP JUMPDEST PUSH1 0x1 DUP2 ADD SWAP1 POP PUSH2 0x498 JUMP JUMPDEST POP POP JUMP JUMPDEST PUSH1 0x1F DUP3 GT ISZERO PUSH2 0x4FA JUMPI PUSH2 0x4CB DUP2 PUSH2 0x399 JUMP JUMPDEST PUSH2 0x4D4 DUP5 PUSH2 0x3AB JUMP JUMPDEST DUP2 ADD PUSH1 0x20 DUP6 LT ISZERO PUSH2 0x4E3 JUMPI DUP2 SWAP1 POP JUMPDEST PUSH2 0x4F7 PUSH2 0x4EF DUP6 PUSH2 0x3AB JUMP JUMPDEST DUP4 ADD DUP3 PUSH2 0x497 JUMP JUMPDEST POP POP JUMPDEST POP POP POP JUMP JUMPDEST PUSH0 DUP3 DUP3 SHR SWAP1 POP SWAP3 SWAP2 POP POP JUMP JUMPDEST PUSH0 PUSH2 0x51A PUSH0 NOT DUP5 PUSH1 0x8 MUL PUSH2 0x4FF JUMP JUMPDEST NOT DUP1 DUP4 AND SWAP2 POP POP SWAP3 SWAP2 POP POP JUMP JUMPDEST PUSH0 PUSH2 0x532 DUP4 DUP4 PUSH2 0x50B JUMP JUMPDEST SWAP2 POP DUP3 PUSH1 0x2 MUL DUP3 OR SWAP1 POP SWAP3 SWAP2 POP POP JUMP JUMPDEST PUSH2 0x54B DUP3 PUSH2 0x332 JUMP JUMPDEST PUSH8 0xFFFFFFFFFFFFFFFF DUP2 GT ISZERO PUSH2 0x564 JUMPI PUSH2 0x563 PUSH2 0x1C7 JUMP JUMPDEST JUMPDEST PUSH2 0x56E DUP3 SLOAD PUSH2 0x369 JUMP JUMPDEST PUSH2 0x579 DUP3 DUP3 DUP6 PUSH2 0x4B9 JUMP JUMPDEST PUSH0 PUSH1 0x20 SWAP1 POP PUSH1 0x1F DUP4 GT PUSH1 0x1 DUP2 EQ PUSH2 0x5AA JUMPI PUSH0 DUP5 ISZERO PUSH2 0x598 JUMPI DUP3 DUP8 ADD MLOAD SWAP1 POP JUMPDEST PUSH2 0x5A2 DUP6 DUP3 PUSH2 0x527 JUMP JUMPDEST DUP7 SSTORE POP PUSH2 0x609 JUMP JUMPDEST PUSH1 0x1F NOT DUP5 AND PUSH2 0x5B8 DUP7 PUSH2 0x399 JUMP JUMPDEST PUSH0 JUMPDEST DUP3 DUP2 LT ISZERO PUSH2 0x5DF JUMPI DUP5 DUP10 ADD MLOAD DUP3 SSTORE PUSH1 0x1 DUP3 ADD SWAP2 POP PUSH1 0x20 DUP6 ADD SWAP5 POP PUSH1 0x20 DUP2 ADD SWAP1 POP PUSH2 0x5BA JUMP JUMPDEST DUP7 DUP4 LT ISZERO PUSH2 0x5FC JUMPI DUP5 DUP10 ADD MLOAD PUSH2 0x5F8 PUSH1 0x1F DUP10 AND DUP3 PUSH2 0x50B JUMP JUMPDEST DUP4 SSTORE POP JUMPDEST PUSH1 0x1 PUSH1 0x2 DUP9 MUL ADD DUP9 SSTORE POP POP POP JUMPDEST POP POP POP POP POP POP JUMP JUMPDEST PUSH2 0x996 DUP1 PUSH2 0x61E PUSH0 CODECOPY PUSH0 RETURN INVALID PUSH1 0x80 PUSH1 0x40 MSTORE CALLVALUE DUP1 ISZERO PUSH2 0xF JUMPI PUSH0 PUSH0 REVERT JUMPDEST POP PUSH1 0x4 CALLDATASIZE LT PUSH2 0x3F JUMPI PUSH0 CALLDATALOAD PUSH1 0xE0 SHR DUP1 PUSH4 0xB703EC59 EQ PUSH2 0x43 JUMPI DUP1 PUSH4 0xD0927395 EQ PUSH2 0x61 JUMPI DUP1 PUSH4 0xDB070261 EQ PUSH2 0x6B JUMPI JUMPDEST PUSH0 PUSH0 REVERT JUMPDEST PUSH2 0x4B PUSH2 0x87 JUMP JUMPDEST PUSH1 0x40 MLOAD PUSH2 0x58 SWAP2 SWAP1 PUSH2 0x335 JUMP JUMPDEST PUSH1 0x40 MLOAD DUP1 SWAP2 SUB SWAP1 RETURN JUMPDEST PUSH2 0x69 PUSH2 0x116 JUMP JUMPDEST STOP JUMPDEST PUSH2 0x85 PUSH1 0x4 DUP1 CALLDATASIZE SUB DUP2 ADD SWAP1 PUSH2 0x80 SWAP2 SWAP1 PUSH2 0x492 JUMP JUMPDEST PUSH2 0x239 JUMP JUMPDEST STOP JUMPDEST PUSH1 0x60 PUSH0 DUP1 SLOAD PUSH2 0x95 SWAP1 PUSH2 0x506 JUMP JUMPDEST DUP1 PUSH1 0x1F ADD PUSH1 0x20 DUP1 SWAP2 DIV MUL PUSH1 0x20 ADD PUSH1 0x40 MLOAD SWAP1 DUP2 ADD PUSH1 0x40 MSTORE DUP1 SWAP3 SWAP2 SWAP1 DUP2 DUP2 MSTORE PUSH1 0x20 ADD DUP3 DUP1 SLOAD PUSH2 0xC1 SWAP1 PUSH2 0x506 JUMP JUMPDEST DUP1 ISZERO PUSH2 0x10C JUMPI DUP1 PUSH1 0x1F LT PUSH2 0xE3 JUMPI PUSH2 0x100 DUP1 DUP4 SLOAD DIV MUL DUP4 MSTORE SWAP2 PUSH1 0x20 ADD SWAP2 PUSH2 0x10C JUMP JUMPDEST DUP3 ADD SWAP2 SWAP1 PUSH0 MSTORE PUSH1 0x20 PUSH0 KECCAK256 SWAP1 JUMPDEST DUP2 SLOAD DUP2 MSTORE SWAP1 PUSH1 0x1 ADD SWAP1 PUSH1 0x20 ADD DUP1 DUP4 GT PUSH2 0xEF JUMPI DUP3 SWAP1 SUB PUSH1 0x1F AND DUP3 ADD SWAP2 JUMPDEST POP POP POP POP POP SWAP1 POP SWAP1 JUMP JUMPDEST PUSH0 PUSH1 0x3 TIMESTAMP CALLER PUSH1 0x40 MLOAD PUSH1 0x20 ADD PUSH2 0x12C SWAP3 SWAP2 SWAP1 PUSH2 0x5D4 JUMP JUMPDEST PUSH1 0x40 MLOAD PUSH1 0x20 DUP2 DUP4 SUB SUB DUP2 MSTORE SWAP1 PUSH1 0x40 MSTORE DUP1 MLOAD SWAP1 PUSH1 0x20 ADD KECCAK256 PUSH0 SHR PUSH2 0x14E SWAP2 SWAP1 PUSH2 0x62C JUMP JUMPDEST SWAP1 POP PUSH0 PUSH1 0x1 DUP3 PUSH1 0x3 DUP2 LT PUSH2 0x165 JUMPI PUSH2 0x164 PUSH2 0x65C JUMP JUMPDEST JUMPDEST ADD DUP1 SLOAD PUSH2 0x171 SWAP1 PUSH2 0x506 JUMP JUMPDEST DUP1 PUSH1 0x1F ADD PUSH1 0x20 DUP1 SWAP2 DIV MUL PUSH1 0x20 ADD PUSH1 0x40 MLOAD SWAP1 DUP2 ADD PUSH1 0x40 MSTORE DUP1 SWAP3 SWAP2 SWAP1 DUP2 DUP2 MSTORE PUSH1 0x20 ADD DUP3 DUP1 SLOAD PUSH2 0x19D SWAP1 PUSH2 0x506 JUMP JUMPDEST DUP1 ISZERO PUSH2 0x1E8 JUMPI DUP1 PUSH1 0x1F LT PUSH2 0x1BF JUMPI PUSH2 0x100 DUP1 DUP4 SLOAD DIV MUL DUP4 MSTORE SWAP2 PUSH1 0x20 ADD SWAP2 PUSH2 0x1E8 JUMP JUMPDEST DUP3 ADD SWAP2 SWAP1 PUSH0 MSTORE PUSH1 0x20 PUSH0 KECCAK256 SWAP1 JUMPDEST DUP2 SLOAD DUP2 MSTORE SWAP1 PUSH1 0x1 ADD SWAP1 PUSH1 0x20 ADD DUP1 DUP4 GT PUSH2 0x1CB JUMPI DUP3 SWAP1 SUB PUSH1 0x1F AND DUP3 ADD SWAP2 JUMPDEST POP POP POP POP POP SWAP1 POP DUP1 PUSH0 SWAP1 DUP2 PUSH2 0x1FD SWAP2 SWAP1 PUSH2 0x829 JUMP JUMPDEST POP PUSH32 0x575FC9A8FEAF6083D0FAA38901FF3A6BB92FEE1D07747197FD88D86066C507BA DUP2 PUSH1 0x40 MLOAD PUSH2 0x22D SWAP2 SWAP1 PUSH2 0x335 JUMP JUMPDEST PUSH1 0x40 MLOAD DUP1 SWAP2 SUB SWAP1 LOG1 POP POP JUMP JUMPDEST PUSH0 DUP2 MLOAD GT PUSH2 0x27C JUMPI PUSH1 0x40 MLOAD PUSH32 0x8C379A000000000000000000000000000000000000000000000000000000000 DUP2 MSTORE PUSH1 0x4 ADD PUSH2 0x273 SWAP1 PUSH2 0x942 JUMP JUMPDEST PUSH1 0x40 MLOAD DUP1 SWAP2 SUB SWAP1 REVERT JUMPDEST DUP1 PUSH0 SWAP1 DUP2 PUSH2 0x28A SWAP2 SWAP1 PUSH2 0x829 JUMP JUMPDEST POP PUSH32 0x575FC9A8FEAF6083D0FAA38901FF3A6BB92FEE1D07747197FD88D86066C507BA DUP2 PUSH1 0x40 MLOAD PUSH2 0x2BA SWAP2 SWAP1 PUSH2 0x335 JUMP JUMPDEST PUSH1 0x40 MLOAD DUP1 SWAP2 SUB SWAP1 LOG1 POP JUMP JUMPDEST PUSH0 DUP2 MLOAD SWAP1 POP SWAP2 SWAP1 POP JUMP JUMPDEST PUSH0 DUP3 DUP3 MSTORE PUSH1 0x20 DUP3 ADD SWAP1 POP SWAP3 SWAP2 POP POP JUMP JUMPDEST DUP3 DUP2 DUP4 MCOPY PUSH0 DUP4 DUP4 ADD MSTORE POP POP POP JUMP JUMPDEST PUSH0 PUSH1 0x1F NOT PUSH1 0x1F DUP4 ADD AND SWAP1 POP SWAP2 SWAP1 POP JUMP JUMPDEST PUSH0 PUSH2 0x307 DUP3 PUSH2 0x2C5 JUMP JUMPDEST PUSH2 0x311 DUP2 DUP6 PUSH2 0x2CF JUMP JUMPDEST SWAP4 POP PUSH2 0x321 DUP2 DUP6 PUSH1 0x20 DUP7 ADD PUSH2 0x2DF JUMP JUMPDEST PUSH2 0x32A DUP2 PUSH2 0x2ED JUMP JUMPDEST DUP5 ADD SWAP2 POP POP SWAP3 SWAP2 POP POP JUMP JUMPDEST PUSH0 PUSH1 0x20 DUP3 ADD SWAP1 POP DUP2 DUP2 SUB PUSH0 DUP4 ADD MSTORE PUSH2 0x34D DUP2 DUP5 PUSH2 0x2FD JUMP JUMPDEST SWAP1 POP SWAP3 SWAP2 POP POP JUMP JUMPDEST PUSH0 PUSH1 0x40 MLOAD SWAP1 POP SWAP1 JUMP JUMPDEST PUSH0 PUSH0 REVERT JUMPDEST PUSH0 PUSH0 REVERT JUMPDEST PUSH0 PUSH0 REVERT JUMPDEST PUSH0 PUSH0 REVERT JUMPDEST PUSH32 0x4E487B7100000000000000000000000000000000000000000000000000000000 PUSH0 MSTORE PUSH1 0x41 PUSH1 0x4 MSTORE PUSH1 0x24 PUSH0 REVERT JUMPDEST PUSH2 0x3A4 DUP3 PUSH2 0x2ED JUMP JUMPDEST DUP2 ADD DUP2 DUP2 LT PUSH8 0xFFFFFFFFFFFFFFFF DUP3 GT OR ISZERO PUSH2 0x3C3 JUMPI PUSH2 0x3C2 PUSH2 0x36E JUMP JUMPDEST JUMPDEST DUP1 PUSH1 0x40 MSTORE POP POP POP JUMP JUMPDEST PUSH0 PUSH2 0x3D5 PUSH2 0x355 JUMP JUMPDEST SWAP1 POP PUSH2 0x3E1 DUP3 DUP3 PUSH2 0x39B JUMP JUMPDEST SWAP2 SWAP1 POP JUMP JUMPDEST PUSH0 PUSH8 0xFFFFFFFFFFFFFFFF DUP3 GT ISZERO PUSH2 0x400 JUMPI PUSH2 0x3FF PUSH2 0x36E JUMP JUMPDEST JUMPDEST PUSH2 0x409 DUP3 PUSH2 0x2ED JUMP JUMPDEST SWAP1 POP PUSH1 0x20 DUP2 ADD SWAP1 POP SWAP2 SWAP1 POP JUMP JUMPDEST DUP3 DUP2 DUP4 CALLDATACOPY PUSH0 DUP4 DUP4 ADD MSTORE POP POP POP JUMP JUMPDEST PUSH0 PUSH2 0x436 PUSH2 0x431 DUP5 PUSH2 0x3E6 JUMP JUMPDEST PUSH2 0x3CC JUMP JUMPDEST SWAP1 POP DUP3 DUP2 MSTORE PUSH1 0x20 DUP2 ADD DUP5 DUP5 DUP5 ADD GT ISZERO PUSH2 0x452 JUMPI PUSH2 0x451 PUSH2 0x36A JUMP JUMPDEST JUMPDEST PUSH2 0x45D DUP5 DUP3 DUP6 PUSH2 0x416 JUMP JUMPDEST POP SWAP4 SWAP3 POP POP POP JUMP JUMPDEST PUSH0 DUP3 PUSH1 0x1F DUP4 ADD SLT PUSH2 0x479 JUMPI PUSH2 0x478 PUSH2 0x366 JUMP JUMPDEST JUMPDEST DUP2 CALLDATALOAD PUSH2 0x489 DUP5 DUP3 PUSH1 0x20 DUP7 ADD PUSH2 0x424 JUMP JUMPDEST SWAP2 POP POP SWAP3 SWAP2 POP POP JUMP JUMPDEST PUSH0 PUSH1 0x20 DUP3 DUP5 SUB SLT ISZERO PUSH2 0x4A7 JUMPI PUSH2 0x4A6 PUSH2 0x35E JUMP JUMPDEST JUMPDEST PUSH0 DUP3 ADD CALLDATALOAD PUSH8 0xFFFFFFFFFFFFFFFF DUP2 GT ISZERO PUSH2 0x4C4 JUMPI PUSH2 0x4C3 PUSH2 0x362 JUMP JUMPDEST JUMPDEST PUSH2 0x4D0 DUP5 DUP3 DUP6 ADD PUSH2 0x465 JUMP JUMPDEST SWAP2 POP POP SWAP3 SWAP2 POP POP JUMP JUMPDEST PUSH32 0x4E487B7100000000000000000000000000000000000000000000000000000000 PUSH0 MSTORE PUSH1 0x22 PUSH1 0x4 MSTORE PUSH1 0x24 PUSH0 REVERT JUMPDEST PUSH0 PUSH1 0x2 DUP3 DIV SWAP1 POP PUSH1 0x1 DUP3 AND DUP1 PUSH2 0x51D JUMPI PUSH1 0x7F DUP3 AND SWAP2 POP JUMPDEST PUSH1 0x20 DUP3 LT DUP2 SUB PUSH2 0x530 JUMPI PUSH2 0x52F PUSH2 0x4D9 JUMP JUMPDEST JUMPDEST POP SWAP2 SWAP1 POP JUMP JUMPDEST PUSH0 DUP2 SWAP1 POP SWAP2 SWAP1 POP JUMP JUMPDEST PUSH0 DUP2 SWAP1 POP SWAP2 SWAP1 POP JUMP JUMPDEST PUSH2 0x559 PUSH2 0x554 DUP3 PUSH2 0x536 JUMP JUMPDEST PUSH2 0x53F JUMP JUMPDEST DUP3 MSTORE POP POP JUMP JUMPDEST PUSH0 PUSH20 0xFFFFFFFFFFFFFFFFFFFFFFFFFFFFFFFFFFFFFFFF DUP3 AND SWAP1 POP SWAP2 SWAP1 POP JUMP JUMPDEST PUSH0 PUSH2 0x588 DUP3 PUSH2 0x55F JUMP JUMPDEST SWAP1 POP SWAP2 SWAP1 POP JUMP JUMPDEST PUSH0 DUP2 PUSH1 0x60 SHL SWAP1 POP SWAP2 SWAP1 POP JUMP JUMPDEST PUSH0 PUSH2 0x5A5 DUP3 PUSH2 0x58F JUMP JUMPDEST SWAP1 POP SWAP2 SWAP1 POP JUMP JUMPDEST PUSH0 PUSH2 0x5B6 DUP3 PUSH2 0x59B JUMP JUMPDEST SWAP1 POP SWAP2 SWAP1 POP JUMP JUMPDEST PUSH2 0x5CE PUSH2 0x5C9 DUP3 PUSH2 0x57E JUMP JUMPDEST PUSH2 0x5AC JUMP JUMPDEST DUP3 MSTORE POP POP JUMP JUMPDEST PUSH0 PUSH2 0x5DF DUP3 DUP6 PUSH2 0x548 JUMP JUMPDEST PUSH1 0x20 DUP3 ADD SWAP2 POP PUSH2 0x5EF DUP3 DUP5 PUSH2 0x5BD JUMP JUMPDEST PUSH1 0x14 DUP3 ADD SWAP2 POP DUP2 SWAP1 POP SWAP4 SWAP3 POP POP POP JUMP JUMPDEST PUSH32 0x4E487B7100000000000000000000000000000000000000000000000000000000 PUSH0 MSTORE PUSH1 0x12 PUSH1 0x4 MSTORE PUSH1 0x24 PUSH0 REVERT JUMPDEST PUSH0 PUSH2 0x636 DUP3 PUSH2 0x536 JUMP JUMPDEST SWAP2 POP PUSH2 0x641 DUP4 PUSH2 0x536 JUMP JUMPDEST SWAP3 POP DUP3 PUSH2 0x651 JUMPI PUSH2 0x650 PUSH2 0x5FF JUMP JUMPDEST JUMPDEST DUP3 DUP3 MOD SWAP1 POP SWAP3 SWAP2 POP POP JUMP JUMPDEST PUSH32 0x4E487B7100000000000000000000000000000000000000000000000000000000 PUSH0 MSTORE PUSH1 0x32 PUSH1 0x4 MSTORE PUSH1 0x24 PUSH0 REVERT JUMPDEST PUSH0 DUP2 SWAP1 POP DUP2 PUSH0 MSTORE PUSH1 0x20 PUSH0 KECCAK256 SWAP1 POP SWAP2 SWAP1 POP JUMP JUMPDEST PUSH0 PUSH1 0x20 PUSH1 0x1F DUP4 ADD DIV SWAP1 POP SWAP2 SWAP1 POP JUMP JUMPDEST PUSH0 DUP3 DUP3 SHL SWAP1 POP SWAP3 SWAP2 POP POP JUMP JUMPDEST PUSH0 PUSH1 0x8 DUP4 MUL PUSH2 0x6E5 PUSH32 0xFFFFFFFFFFFFFFFFFFFFFFFFFFFFFFFFFFFFFFFFFFFFFFFFFFFFFFFFFFFFFFFF DUP3 PUSH2 0x6AA JUMP JUMPDEST PUSH2 0x6EF DUP7 DUP4 PUSH2 0x6AA JUMP JUMPDEST SWAP6 POP DUP1 NOT DUP5 AND SWAP4 POP DUP1 DUP7 AND DUP5 OR SWAP3 POP POP POP SWAP4 SWAP3 POP POP POP JUMP JUMPDEST PUSH0 DUP2 SWAP1 POP SWAP2 SWAP1 POP JUMP JUMPDEST PUSH0 PUSH2 0x72A PUSH2 0x725 PUSH2 0x720 DUP5 PUSH2 0x536 JUMP JUMPDEST PUSH2 0x707 JUMP JUMPDEST PUSH2 0x536 JUMP JUMPDEST SWAP1 POP SWAP2 SWAP1 POP JUMP JUMPDEST PUSH0 DUP2 SWAP1 POP SWAP2 SWAP1 POP JUMP JUMPDEST PUSH2 0x743 DUP4 PUSH2 0x710 JUMP JUMPDEST PUSH2 0x757 PUSH2 0x74F DUP3 PUSH2 0x731 JUMP JUMPDEST DUP5 DUP5 SLOAD PUSH2 0x6B6 JUMP JUMPDEST DUP3 SSTORE POP POP POP POP JUMP JUMPDEST PUSH0 PUSH0 SWAP1 POP SWAP1 JUMP JUMPDEST PUSH2 0x76E PUSH2 0x75F JUMP JUMPDEST PUSH2 0x779 DUP2 DUP5 DUP5 PUSH2 0x73A JUMP JUMPDEST POP POP POP JUMP JUMPDEST JUMPDEST DUP2 DUP2 LT ISZERO PUSH2 0x79C JUMPI PUSH2 0x791 PUSH0 DUP3 PUSH2 0x766 JUMP JUMPDEST PUSH1 0x1 DUP2 ADD SWAP1 POP PUSH2 0x77F JUMP JUMPDEST POP POP JUMP JUMPDEST PUSH1 0x1F DUP3 GT ISZERO PUSH2 0x7E1 JUMPI PUSH2 0x7B2 DUP2 PUSH2 0x689 JUMP JUMPDEST PUSH2 0x7BB DUP5 PUSH2 0x69B JUMP JUMPDEST DUP2 ADD PUSH1 0x20 DUP6 LT ISZERO PUSH2 0x7CA JUMPI DUP2 SWAP1 POP JUMPDEST PUSH2 0x7DE PUSH2 0x7D6 DUP6 PUSH2 0x69B JUMP JUMPDEST DUP4 ADD DUP3 PUSH2 0x77E JUMP JUMPDEST POP POP JUMPDEST POP POP POP JUMP JUMPDEST PUSH0 DUP3 DUP3 SHR SWAP1 POP SWAP3 SWAP2 POP POP JUMP JUMPDEST PUSH0 PUSH2 0x801 PUSH0 NOT DUP5 PUSH1 0x8 MUL PUSH2 0x7E6 JUMP JUMPDEST NOT DUP1 DUP4 AND SWAP2 POP POP SWAP3 SWAP2 POP POP JUMP JUMPDEST PUSH0 PUSH2 0x819 DUP4 DUP4 PUSH2 0x7F2 JUMP JUMPDEST SWAP2 POP DUP3 PUSH1 0x2 MUL DUP3 OR SWAP1 POP SWAP3 SWAP2 POP POP JUMP JUMPDEST PUSH2 0x832 DUP3 PUSH2 0x2C5 JUMP JUMPDEST PUSH8 0xFFFFFFFFFFFFFFFF DUP2 GT ISZERO PUSH2 0x84B JUMPI PUSH2 0x84A PUSH2 0x36E JUMP JUMPDEST JUMPDEST PUSH2 0x855 DUP3 SLOAD PUSH2 0x506 JUMP JUMPDEST PUSH2 0x860 DUP3 DUP3 DUP6 PUSH2 0x7A0 JUMP JUMPDEST PUSH0 PUSH1 0x20 SWAP1 POP PUSH1 0x1F DUP4 GT PUSH1 0x1 DUP2 EQ PUSH2 0x891 JUMPI PUSH0 DUP5 ISZERO PUSH2 0x87F JUMPI DUP3 DUP8 ADD MLOAD SWAP1 POP JUMPDEST PUSH2 0x889 DUP6 DUP3 PUSH2 0x80E JUMP JUMPDEST DUP7 SSTORE POP PUSH2 0x8F0 JUMP JUMPDEST PUSH1 0x1F NOT DUP5 AND PUSH2 0x89F DUP7 PUSH2 0x689 JUMP JUMPDEST PUSH0 JUMPDEST DUP3 DUP2 LT ISZERO PUSH2 0x8C6 JUMPI DUP5 DUP10 ADD MLOAD DUP3 SSTORE PUSH1 0x1 DUP3 ADD SWAP2 POP PUSH1 0x20 DUP6 ADD SWAP5 POP PUSH1 0x20 DUP2 ADD SWAP1 POP PUSH2 0x8A1 JUMP JUMPDEST DUP7 DUP4 LT ISZERO PUSH2 0x8E3 JUMPI DUP5 DUP10 ADD MLOAD PUSH2 0x8DF PUSH1 0x1F DUP10 AND DUP3 PUSH2 0x7F2 JUMP JUMPDEST DUP4 SSTORE POP JUMPDEST PUSH1 0x1 PUSH1 0x2 DUP9 MUL ADD DUP9 SSTORE POP POP POP JUMPDEST POP POP POP POP POP POP JUMP JUMPDEST PUSH32 0x456C2073616C75646F206E6F20707565646520657374617220766163696F0000 PUSH0 DUP3 ADD MSTORE POP JUMP JUMPDEST PUSH0 PUSH2 0x92C PUSH1 0x1E DUP4 PUSH2 0x2CF JUMP JUMPDEST SWAP2 POP PUSH2 0x937 DUP3 PUSH2 0x8F8 JUMP JUMPDEST PUSH1 0x20 DUP3 ADD SWAP1 POP SWAP2 SWAP1 POP JUMP JUMPDEST PUSH0 PUSH1 0x20 DUP3 ADD SWAP1 POP DUP2 DUP2 SUB PUSH0 DUP4 ADD MSTORE PUSH2 0x959 DUP2 PUSH2 0x920 JUMP JUMPDEST SWAP1 POP SWAP2 SWAP1 POP JUMP INVALID LOG2 PUSH5 0x6970667358 0x22 SLT KECCAK256 RETURNDATACOPY 0xE EXTCODESIZE SWAP15 JUMPI DUP12 PUSH17 0xD28CF028F6C1D6E2EBC2AA317181BDEC8B RETURNDATASIZE 0x2F PUSH13 0xFF4154533964736F6C63430008 0x1E STOP CALLER PREVRANDAO PUSH2 0x6E69 PUSH6 0x6C6120262047 PUSH19 0x6F6B20646F6D696E616E206C612067616C6178 PUSH10 0x6121456C20756E697665 PUSH19 0x736F206E6F732073616C756461206465207675 PUSH6 0x6C7461210000 "
				},
				"gasEstimates": {
					"creation": {
						"codeDepositCost": "490800",
						"executionCost": "infinite",
						"totalCost": "infinite"
					},
					"external": {
						"getSaludo()": "infinite",
						"greetTheUniverse()": "infinite",
						"setSaludo(string)": "infinite"
					}
				},
				"methodIdentifiers": {
					"getSaludo()": "b703ec59",
					"greetTheUniverse()": "d0927395",
					"setSaludo(string)": "db070261"
				}
			},
			"storageLayout": {
				"storage": [
					{
						"astId": 3,
						"contract": "contracts/Greeting.sol:Greeting",
						"label": "_saludo",
						"offset": 0,
						"slot": "0",
						"type": "t_string_storage"
					},
					{
						"astId": 58,
						"contract": "contracts/Greeting.sol:Greeting",
						"label": "saludosCosmicos",
						"offset": 0,
						"slot": "1",
						"type": "t_array(t_string_storage)3_storage"
					}
				],
				"types": {
					"t_array(t_string_storage)3_storage": {
						"base": "t_string_storage",
						"encoding": "inplace",
						"label": "string[3]",
						"numberOfBytes": "96"
					},
					"t_string_storage": {
						"encoding": "bytes",
						"label": "string",
						"numberOfBytes": "32"
					}
				}
			},
			"userdoc": {
				"kind": "user",
				"methods": {},
				"version": 1
			}
		}
	}
}